{
  "_format": "hh-sol-artifact-1",
  "contractName": "ExecutionDelegate",
  "sourceName": "contracts/ExecutionDelegate.sol",
  "abi": [
    {
      "anonymous": false,
      "inputs": [
        {
          "indexed": true,
          "internalType": "address",
          "name": "_contract",
          "type": "address"
        }
      ],
      "name": "ApproveContract",
      "type": "event"
    },
    {
      "anonymous": false,
      "inputs": [
        {
          "indexed": true,
          "internalType": "address",
          "name": "_contract",
          "type": "address"
        }
      ],
      "name": "DenyContract",
      "type": "event"
    },
    {
      "anonymous": false,
      "inputs": [
        {
          "indexed": true,
          "internalType": "address",
          "name": "user",
          "type": "address"
        }
      ],
      "name": "GrantApproval",
      "type": "event"
    },
    {
      "anonymous": false,
      "inputs": [
        {
          "indexed": true,
          "internalType": "address",
          "name": "previousOwner",
          "type": "address"
        },
        {
          "indexed": true,
          "internalType": "address",
          "name": "newOwner",
          "type": "address"
        }
      ],
      "name": "OwnershipTransferred",
      "type": "event"
    },
    {
      "anonymous": false,
      "inputs": [
        {
          "indexed": true,
          "internalType": "address",
          "name": "user",
          "type": "address"
        }
      ],
      "name": "RevokeApproval",
      "type": "event"
    },
    {
      "inputs": [
        {
          "internalType": "address",
          "name": "_contract",
          "type": "address"
        }
      ],
      "name": "approveContract",
      "outputs": [],
      "stateMutability": "nonpayable",
      "type": "function"
    },
    {
      "inputs": [
        {
          "internalType": "address",
          "name": "",
          "type": "address"
        }
      ],
      "name": "contracts",
      "outputs": [
        {
          "internalType": "bool",
          "name": "",
          "type": "bool"
        }
      ],
      "stateMutability": "view",
      "type": "function"
    },
    {
      "inputs": [
        {
          "internalType": "address",
          "name": "_contract",
          "type": "address"
        }
      ],
      "name": "denyContract",
      "outputs": [],
      "stateMutability": "nonpayable",
      "type": "function"
    },
    {
      "inputs": [],
      "name": "grantApproval",
      "outputs": [],
      "stateMutability": "nonpayable",
      "type": "function"
    },
    {
      "inputs": [],
      "name": "owner",
      "outputs": [
        {
          "internalType": "address",
          "name": "",
          "type": "address"
        }
      ],
      "stateMutability": "view",
      "type": "function"
    },
    {
      "inputs": [],
      "name": "renounceOwnership",
      "outputs": [],
      "stateMutability": "nonpayable",
      "type": "function"
    },
    {
      "inputs": [],
      "name": "revokeApproval",
      "outputs": [],
      "stateMutability": "nonpayable",
      "type": "function"
    },
    {
      "inputs": [
        {
          "internalType": "address",
          "name": "",
          "type": "address"
        }
      ],
      "name": "revokedApproval",
      "outputs": [
        {
          "internalType": "bool",
          "name": "",
          "type": "bool"
        }
      ],
      "stateMutability": "view",
      "type": "function"
    },
    {
      "inputs": [
        {
          "internalType": "address",
          "name": "collection",
          "type": "address"
        },
        {
          "internalType": "address",
          "name": "from",
          "type": "address"
        },
        {
          "internalType": "address",
          "name": "to",
          "type": "address"
        },
        {
          "internalType": "uint256",
          "name": "tokenId",
          "type": "uint256"
        },
        {
          "internalType": "uint256",
          "name": "amount",
          "type": "uint256"
        }
      ],
      "name": "transferERC1155",
      "outputs": [],
      "stateMutability": "nonpayable",
      "type": "function"
    },
    {
      "inputs": [
        {
          "internalType": "address",
          "name": "token",
          "type": "address"
        },
        {
          "internalType": "address",
          "name": "from",
          "type": "address"
        },
        {
          "internalType": "address",
          "name": "to",
          "type": "address"
        },
        {
          "internalType": "uint256",
          "name": "amount",
          "type": "uint256"
        }
      ],
      "name": "transferERC20",
      "outputs": [],
      "stateMutability": "nonpayable",
      "type": "function"
    },
    {
      "inputs": [
        {
          "internalType": "address",
          "name": "collection",
          "type": "address"
        },
        {
          "internalType": "address",
          "name": "from",
          "type": "address"
        },
        {
          "internalType": "address",
          "name": "to",
          "type": "address"
        },
        {
          "internalType": "uint256",
          "name": "tokenId",
          "type": "uint256"
        }
      ],
      "name": "transferERC721",
      "outputs": [],
      "stateMutability": "nonpayable",
      "type": "function"
    },
    {
      "inputs": [
        {
          "internalType": "address",
          "name": "collection",
          "type": "address"
        },
        {
          "internalType": "address",
          "name": "from",
          "type": "address"
        },
        {
          "internalType": "address",
          "name": "to",
          "type": "address"
        },
        {
          "internalType": "uint256",
          "name": "tokenId",
          "type": "uint256"
        }
      ],
      "name": "transferERC721Unsafe",
      "outputs": [],
      "stateMutability": "nonpayable",
      "type": "function"
    },
    {
      "inputs": [
        {
          "internalType": "address",
          "name": "newOwner",
          "type": "address"
        }
      ],
      "name": "transferOwnership",
      "outputs": [],
      "stateMutability": "nonpayable",
      "type": "function"
    }
  ],
  "bytecode": "0x608060405234801561001057600080fd5b5061001a3361001f565b61006f565b600080546001600160a01b038381166001600160a01b0319831681178455604051919092169283917f8be0079c531659141344cd1fd0a4f28419497f9722a3daafe3b4186f6b6457e09190a35050565b610eb78061007e6000396000f3fe608060405234801561001057600080fd5b50600436106100df5760003560e01c80638da5cb5b1161008c578063b7e2077e11610066578063b7e2077e146101ad578063ca72da8e146101c0578063da3e8ce4146101d3578063f2fde38b146101e657600080fd5b80638da5cb5b1461018257806390d02b3c1461019d578063a8034df1146101a557600080fd5b8063715018a6116100bd578063715018a61461015457806374a9402e1461015c578063789f93f61461016f57600080fd5b806307f7aafb146100e45780634a3e3a1f146100f957806369dc9ff314610131575b600080fd5b6100f76100f2366004610d31565b6101f9565b005b61011c610107366004610d31565b60026020526000908152604090205460ff1681565b60405190151581526020015b60405180910390f35b61011c61013f366004610d31565b60016020526000908152604090205460ff1681565b6100f76102a7565b6100f761016a366004610d4c565b61030d565b6100f761017d366004610da1565b610487565b6000546040516001600160a01b039091168152602001610128565b6100f76105ec565b6100f761062e565b6100f76101bb366004610d31565b61066d565b6100f76101ce366004610da1565b610710565b6100f76101e1366004610da1565b610828565b6100f76101f4366004610d31565b6109ea565b6000546001600160a01b031633146102585760405162461bcd60e51b815260206004820181905260248201527f4f776e61626c653a2063616c6c6572206973206e6f7420746865206f776e657260448201526064015b60405180910390fd5b6001600160a01b0381166000818152600160208190526040808320805460ff1916909217909155517f283ffe02a14663588cf87ba17adbc21c9ce0d0cdb15655926bf2b987af3075fe9190a250565b6000546001600160a01b031633146103015760405162461bcd60e51b815260206004820181905260248201527f4f776e61626c653a2063616c6c6572206973206e6f7420746865206f776e6572604482015260640161024f565b61030b6000610acc565b565b3360009081526001602052604090205460ff1661037f5760405162461bcd60e51b815260206004820152602a60248201527f436f6e7472616374206973206e6f7420617070726f76656420746f206d616b65604482015269207472616e736665727360b01b606482015260840161024f565b6001600160a01b03841660009081526002602052604090205460ff16156103e85760405162461bcd60e51b815260206004820152601960248201527f5573657220686173207265766f6b656420617070726f76616c00000000000000604482015260640161024f565b6040517ff242432a0000000000000000000000000000000000000000000000000000000081526001600160a01b0385811660048301528481166024830152604482018490526064820183905260a06084830152600060a483015286169063f242432a9060c401600060405180830381600087803b15801561046857600080fd5b505af115801561047c573d6000803e3d6000fd5b505050505050505050565b3360009081526001602052604090205460ff166104f95760405162461bcd60e51b815260206004820152602a60248201527f436f6e7472616374206973206e6f7420617070726f76656420746f206d616b65604482015269207472616e736665727360b01b606482015260840161024f565b6001600160a01b03831660009081526002602052604090205460ff16156105625760405162461bcd60e51b815260206004820152601960248201527f5573657220686173207265766f6b656420617070726f76616c00000000000000604482015260640161024f565b6040517f42842e0e0000000000000000000000000000000000000000000000000000000081526001600160a01b0384811660048301528381166024830152604482018390528516906342842e0e906064015b600060405180830381600087803b1580156105ce57600080fd5b505af11580156105e2573d6000803e3d6000fd5b5050505050505050565b33600081815260026020526040808220805460ff19166001179055517fdddeac663983b1e35153215a4578fecbb5921d12e660b3c4259aa7d9dbb9709f9190a2565b33600081815260026020526040808220805460ff19169055517f120d91a0121c2d5a7ce9638fce4bd262d4b443568fce40f681f50dca814a629a9190a2565b6000546001600160a01b031633146106c75760405162461bcd60e51b815260206004820181905260248201527f4f776e61626c653a2063616c6c6572206973206e6f7420746865206f776e6572604482015260640161024f565b6001600160a01b038116600081815260016020526040808220805460ff19169055517f2b35b0a030b4f4cef0a9e8d01828235bb82a11ec4e37c11bd6d8770d9aafb17c9190a250565b3360009081526001602052604090205460ff166107825760405162461bcd60e51b815260206004820152602a60248201527f436f6e7472616374206973206e6f7420617070726f76656420746f206d616b65604482015269207472616e736665727360b01b606482015260840161024f565b6001600160a01b03831660009081526002602052604090205460ff16156107eb5760405162461bcd60e51b815260206004820152601960248201527f5573657220686173207265766f6b656420617070726f76616c00000000000000604482015260640161024f565b6040516323b872dd60e01b81526001600160a01b0384811660048301528381166024830152604482018390528516906323b872dd906064016105b4565b3360009081526001602052604090205460ff1661089a5760405162461bcd60e51b815260206004820152602a60248201527f436f6e7472616374206973206e6f7420617070726f76656420746f206d616b65604482015269207472616e736665727360b01b606482015260840161024f565b6001600160a01b03831660009081526002602052604090205460ff16156109035760405162461bcd60e51b815260206004820152601960248201527f5573657220686173207265766f6b656420617070726f76616c00000000000000604482015260640161024f565b604080516001600160a01b038581166024830152848116604483015260648083018590528351808403909101815260849092019092526020810180517bffffffffffffffffffffffffffffffffffffffffffffffffffffffff166323b872dd60e01b1790529060009061097890871683610b34565b8051909150156109e257808060200190518101906109969190610dec565b6109e25760405162461bcd60e51b815260206004820152601560248201527f4552433230207472616e73666572206661696c65640000000000000000000000604482015260640161024f565b505050505050565b6000546001600160a01b03163314610a445760405162461bcd60e51b815260206004820181905260248201527f4f776e61626c653a2063616c6c6572206973206e6f7420746865206f776e6572604482015260640161024f565b6001600160a01b038116610ac05760405162461bcd60e51b815260206004820152602660248201527f4f776e61626c653a206e6577206f776e657220697320746865207a65726f206160448201527f6464726573730000000000000000000000000000000000000000000000000000606482015260840161024f565b610ac981610acc565b50565b600080546001600160a01b038381167fffffffffffffffffffffffff0000000000000000000000000000000000000000831681178455604051919092169283917f8be0079c531659141344cd1fd0a4f28419497f9722a3daafe3b4186f6b6457e09190a35050565b6060610b7683836040518060400160405280601e81526020017f416464726573733a206c6f772d6c6576656c2063616c6c206661696c65640000815250610b7d565b9392505050565b6060610b8c8484600085610b94565b949350505050565b606082471015610c0c5760405162461bcd60e51b815260206004820152602660248201527f416464726573733a20696e73756666696369656e742062616c616e636520666f60448201527f722063616c6c0000000000000000000000000000000000000000000000000000606482015260840161024f565b6001600160a01b0385163b610c635760405162461bcd60e51b815260206004820152601d60248201527f416464726573733a2063616c6c20746f206e6f6e2d636f6e7472616374000000604482015260640161024f565b600080866001600160a01b03168587604051610c7f9190610e32565b60006040518083038185875af1925050503d8060008114610cbc576040519150601f19603f3d011682016040523d82523d6000602084013e610cc1565b606091505b5091509150610cd1828286610cdc565b979650505050505050565b60608315610ceb575081610b76565b825115610cfb5782518084602001fd5b8160405162461bcd60e51b815260040161024f9190610e4e565b80356001600160a01b0381168114610d2c57600080fd5b919050565b600060208284031215610d4357600080fd5b610b7682610d15565b600080600080600060a08688031215610d6457600080fd5b610d6d86610d15565b9450610d7b60208701610d15565b9350610d8960408701610d15565b94979396509394606081013594506080013592915050565b60008060008060808587031215610db757600080fd5b610dc085610d15565b9350610dce60208601610d15565b9250610ddc60408601610d15565b9396929550929360600135925050565b600060208284031215610dfe57600080fd5b81518015158114610b7657600080fd5b60005b83811015610e29578181015183820152602001610e11565b50506000910152565b60008251610e44818460208701610e0e565b9190910192915050565b6020815260008251806020840152610e6d816040850160208701610e0e565b601f01601f1916919091016040019291505056fea26469706673582212206706dd2fdb32c48fe5a9b5a02c4876969b6f600d8a53e9ef4b7253358d91842c64736f6c63430008110033",
  "linkReferences": {},
  "deployedLinkReferences": {}
}