{
  "_format": "hh-sol-artifact-1",
  "contractName": "MerkleVerifier",
  "sourceName": "contracts/lib/MerkleVerifier.sol",
  "abi": [
    {
      "inputs": [],
      "name": "InvalidProof",
      "type": "error"
    },
    {
      "inputs": [
        {
          "internalType": "bytes32",
          "name": "leaf",
          "type": "bytes32"
        },
        {
          "internalType": "bytes32[]",
          "name": "proof",
          "type": "bytes32[]"
        }
      ],
      "name": "_computeRoot",
      "outputs": [
        {
          "internalType": "bytes32",
          "name": "",
          "type": "bytes32"
        }
      ],
      "stateMutability": "pure",
      "type": "function"
    },
    {
      "inputs": [
        {
          "internalType": "bytes32",
          "name": "leaf",
          "type": "bytes32"
        },
        {
          "internalType": "bytes32",
          "name": "root",
          "type": "bytes32"
        },
        {
          "internalType": "bytes32[]",
          "name": "proof",
          "type": "bytes32[]"
        }
      ],
      "name": "_verifyProof",
      "outputs": [],
      "stateMutability": "pure",
      "type": "function"
    }
  ],
  "bytecode": "0x61030d61003a600b82828239805160001a60731461002d57634e487b7160e01b600052600060045260246000fd5b30600052607381538281f3fe73000000000000000000000000000000000000000030146080604052600436106100405760003560e01c806372aaadac146100455780639c7bf9381461005a575b600080fd5b610058610053366004610203565b61007f565b005b61006d610068366004610253565b6100cc565b60405190815260200160405180910390f35b600061008b84836100cc565b90508281146100c6576040517f09bde33900000000000000000000000000000000000000000000000000000000815260040160405180910390fd5b50505050565b600082815b83518110156101185760008482815181106100ee576100ee61029a565b602002602001015190506101028382610120565b9250508080610110906102b0565b9150506100d1565b509392505050565b600081831061013c57600082815260208490526040902061014b565b60008381526020839052604090205b9392505050565b634e487b7160e01b600052604160045260246000fd5b600082601f83011261017957600080fd5b8135602067ffffffffffffffff8083111561019657610196610152565b8260051b604051601f19603f830116810181811084821117156101bb576101bb610152565b6040529384528581018301938381019250878511156101d957600080fd5b83870191505b848210156101f8578135835291830191908301906101df565b979650505050505050565b60008060006060848603121561021857600080fd5b8335925060208401359150604084013567ffffffffffffffff81111561023d57600080fd5b61024986828701610168565b9150509250925092565b6000806040838503121561026657600080fd5b82359150602083013567ffffffffffffffff81111561028457600080fd5b61029085828601610168565b9150509250929050565b634e487b7160e01b600052603260045260246000fd5b6000600182016102d057634e487b7160e01b600052601160045260246000fd5b506001019056fea2646970667358221220f28c3c87e241326590bc65f4abc4154fc28ae5a4c248c5a0ece3bc7d6d70cd5d64736f6c63430008110033",
  "linkReferences": {},
  "deployedLinkReferences": {}
}