{
  "_format": "hh-sol-artifact-1",
  "contractName": "BlurPool",
  "sourceName": "contracts/BlurPool.sol",
  "abi": [
    {
      "inputs": [],
      "stateMutability": "nonpayable",
      "type": "constructor"
    },
    {
      "anonymous": false,
      "inputs": [
        {
          "indexed": false,
          "internalType": "address",
          "name": "previousAdmin",
          "type": "address"
        },
        {
          "indexed": false,
          "internalType": "address",
          "name": "newAdmin",
          "type": "address"
        }
      ],
      "name": "AdminChanged",
      "type": "event"
    },
    {
      "anonymous": false,
      "inputs": [
        {
          "indexed": true,
          "internalType": "address",
          "name": "beacon",
          "type": "address"
        }
      ],
      "name": "BeaconUpgraded",
      "type": "event"
    },
    {
      "anonymous": false,
      "inputs": [
        {
          "indexed": false,
          "internalType": "uint8",
          "name": "version",
          "type": "uint8"
        }
      ],
      "name": "Initialized",
      "type": "event"
    },
    {
      "anonymous": false,
      "inputs": [
        {
          "indexed": true,
          "internalType": "address",
          "name": "previousOwner",
          "type": "address"
        },
        {
          "indexed": true,
          "internalType": "address",
          "name": "newOwner",
          "type": "address"
        }
      ],
      "name": "OwnershipTransferred",
      "type": "event"
    },
    {
      "anonymous": false,
      "inputs": [
        {
          "indexed": true,
          "internalType": "address",
          "name": "from",
          "type": "address"
        },
        {
          "indexed": true,
          "internalType": "address",
          "name": "to",
          "type": "address"
        },
        {
          "indexed": false,
          "internalType": "uint256",
          "name": "amount",
          "type": "uint256"
        }
      ],
      "name": "Transfer",
      "type": "event"
    },
    {
      "anonymous": false,
      "inputs": [
        {
          "indexed": true,
          "internalType": "address",
          "name": "implementation",
          "type": "address"
        }
      ],
      "name": "Upgraded",
      "type": "event"
    },
    {
      "inputs": [
        {
          "internalType": "address",
          "name": "user",
          "type": "address"
        }
      ],
      "name": "balanceOf",
      "outputs": [
        {
          "internalType": "uint256",
          "name": "",
          "type": "uint256"
        }
      ],
      "stateMutability": "view",
      "type": "function"
    },
    {
      "inputs": [],
      "name": "decimals",
      "outputs": [
        {
          "internalType": "uint8",
          "name": "",
          "type": "uint8"
        }
      ],
      "stateMutability": "pure",
      "type": "function"
    },
    {
      "inputs": [],
      "name": "deposit",
      "outputs": [],
      "stateMutability": "payable",
      "type": "function"
    },
    {
      "inputs": [],
      "name": "initialize",
      "outputs": [],
      "stateMutability": "nonpayable",
      "type": "function"
    },
    {
      "inputs": [],
      "name": "name",
      "outputs": [
        {
          "internalType": "string",
          "name": "",
          "type": "string"
        }
      ],
      "stateMutability": "view",
      "type": "function"
    },
    {
      "inputs": [],
      "name": "owner",
      "outputs": [
        {
          "internalType": "address",
          "name": "",
          "type": "address"
        }
      ],
      "stateMutability": "view",
      "type": "function"
    },
    {
      "inputs": [],
      "name": "proxiableUUID",
      "outputs": [
        {
          "internalType": "bytes32",
          "name": "",
          "type": "bytes32"
        }
      ],
      "stateMutability": "view",
      "type": "function"
    },
    {
      "inputs": [],
      "name": "renounceOwnership",
      "outputs": [],
      "stateMutability": "nonpayable",
      "type": "function"
    },
    {
      "inputs": [
        {
          "internalType": "address",
          "name": "exchange",
          "type": "address"
        }
      ],
      "name": "setExchange",
      "outputs": [],
      "stateMutability": "nonpayable",
      "type": "function"
    },
    {
      "inputs": [
        {
          "internalType": "address",
          "name": "swap",
          "type": "address"
        }
      ],
      "name": "setSwap",
      "outputs": [],
      "stateMutability": "nonpayable",
      "type": "function"
    },
    {
      "inputs": [],
      "name": "totalSupply",
      "outputs": [
        {
          "internalType": "uint256",
          "name": "",
          "type": "uint256"
        }
      ],
      "stateMutability": "view",
      "type": "function"
    },
    {
      "inputs": [
        {
          "internalType": "address",
          "name": "from",
          "type": "address"
        },
        {
          "internalType": "address",
          "name": "to",
          "type": "address"
        },
        {
          "internalType": "uint256",
          "name": "amount",
          "type": "uint256"
        }
      ],
      "name": "transferFrom",
      "outputs": [
        {
          "internalType": "bool",
          "name": "",
          "type": "bool"
        }
      ],
      "stateMutability": "nonpayable",
      "type": "function"
    },
    {
      "inputs": [
        {
          "internalType": "address",
          "name": "newOwner",
          "type": "address"
        }
      ],
      "name": "transferOwnership",
      "outputs": [],
      "stateMutability": "nonpayable",
      "type": "function"
    },
    {
      "inputs": [
        {
          "internalType": "address",
          "name": "newImplementation",
          "type": "address"
        }
      ],
      "name": "upgradeTo",
      "outputs": [],
      "stateMutability": "nonpayable",
      "type": "function"
    },
    {
      "inputs": [
        {
          "internalType": "address",
          "name": "newImplementation",
          "type": "address"
        },
        {
          "internalType": "bytes",
          "name": "data",
          "type": "bytes"
        }
      ],
      "name": "upgradeToAndCall",
      "outputs": [],
      "stateMutability": "payable",
      "type": "function"
    },
    {
      "inputs": [
        {
          "internalType": "uint256",
          "name": "amount",
          "type": "uint256"
        }
      ],
      "name": "withdraw",
      "outputs": [],
      "stateMutability": "nonpayable",
      "type": "function"
    },
    {
      "stateMutability": "payable",
      "type": "receive"
    }
  ],
  "bytecode": "0x60a06040523060805234801561001457600080fd5b5061001d610022565b6100e2565b600054610100900460ff161561008e5760405162461bcd60e51b815260206004820152602760248201527f496e697469616c697a61626c653a20636f6e747261637420697320696e697469604482015266616c697a696e6760c81b606482015260840160405180910390fd5b60005460ff90811610156100e0576000805460ff191660ff9081179091556040519081527f7f26b83ff96e1f2b6a682f133852f6798a09c465da95921460cefb38474024989060200160405180910390a15b565b60805161150e6101196000396000818161057b01528181610600015281816106f60152818161077b0152610865015261150e6000f3fe6080604052600436106100f75760003560e01c806367b1f5df1161008a5780638da5cb5b116100595780638da5cb5b146102bb578063acb3c073146102e3578063d0e30db014610303578063f2fde38b1461030b57600080fd5b806367b1f5df1461023b57806370a082311461025b578063715018a6146102915780638129fc1c146102a657600080fd5b8063313ce567116100c6578063313ce567146101d75780633659cfe6146101f35780634f1ef2861461021357806352d1902d1461022657600080fd5b806306fdde031461010b57806318160ddd1461016a57806323b872dd146101875780632e1a7d4d146101b757600080fd5b366101065761010461032b565b005b600080fd5b34801561011757600080fd5b506101546040518060400160405280600981526020017f426c757220506f6f6c000000000000000000000000000000000000000000000081525081565b60405161016191906112a9565b60405180910390f35b34801561017657600080fd5b50475b604051908152602001610161565b34801561019357600080fd5b506101a76101a23660046112f8565b610389565b6040519015158152602001610161565b3480156101c357600080fd5b506101046101d2366004611334565b61041a565b3480156101e357600080fd5b5060405160128152602001610161565b3480156101ff57600080fd5b5061010461020e36600461134d565b610571565b61010461022136600461137e565b6106ec565b34801561023257600080fd5b50610179610858565b34801561024757600080fd5b5061010461025636600461134d565b61091d565b34801561026757600080fd5b5061017961027636600461134d565b6001600160a01b0316600090815260cb602052604090205490565b34801561029d57600080fd5b50610104610954565b3480156102b257600080fd5b50610104610968565b3480156102c757600080fd5b506033546040516001600160a01b039091168152602001610161565b3480156102ef57600080fd5b506101046102fe36600461134d565b610a87565b61010461032b565b34801561031757600080fd5b5061010461032636600461134d565b610abe565b33600090815260cb60205260408120805434929061034a908490611456565b909155505060405134815233906000907fddf252ad1be2c89b69c2b068fc378daa952ba7f163c4a11628f55a4df523b3ef9060200160405180910390a3565b60c9546000906001600160a01b031633148015906103b2575060ca546001600160a01b03163314155b156104045760405162461bcd60e51b815260206004820152601560248201527f556e617574686f72697a6564207472616e73666572000000000000000000000060448201526064015b60405180910390fd5b61040f848484610b4b565b5060015b9392505050565b33600090815260cb60205260409020548111156104795760405162461bcd60e51b815260206004820152601260248201527f496e73756666696369656e742066756e6473000000000000000000000000000060448201526064016103fb565b33600090815260cb602052604081208054839290610498908490611469565b9091555050604051600090339083908381818185875af1925050503d80600081146104df576040519150601f19603f3d011682016040523d82523d6000602084013e6104e4565b606091505b50509050806105355760405162461bcd60e51b815260206004820152600f60248201527f5472616e73666572206661696c6564000000000000000000000000000000000060448201526064016103fb565b60405182815260009033907fddf252ad1be2c89b69c2b068fc378daa952ba7f163c4a11628f55a4df523b3ef9060200160405180910390a35050565b6001600160a01b037f00000000000000000000000000000000000000000000000000000000000000001630036105fe5760405162461bcd60e51b815260206004820152602c60248201527f46756e6374696f6e206d7573742062652063616c6c6564207468726f7567682060448201526b19195b1959d85d1958d85b1b60a21b60648201526084016103fb565b7f00000000000000000000000000000000000000000000000000000000000000006001600160a01b03166106597f360894a13ba1a3210667c828492db98dca3e2076cc3735a920a3ca505d382bbc546001600160a01b031690565b6001600160a01b0316146106c45760405162461bcd60e51b815260206004820152602c60248201527f46756e6374696f6e206d7573742062652063616c6c6564207468726f7567682060448201526b6163746976652070726f787960a01b60648201526084016103fb565b6106cd81610cb7565b604080516000808252602082019092526106e991839190610cbf565b50565b6001600160a01b037f00000000000000000000000000000000000000000000000000000000000000001630036107795760405162461bcd60e51b815260206004820152602c60248201527f46756e6374696f6e206d7573742062652063616c6c6564207468726f7567682060448201526b19195b1959d85d1958d85b1b60a21b60648201526084016103fb565b7f00000000000000000000000000000000000000000000000000000000000000006001600160a01b03166107d47f360894a13ba1a3210667c828492db98dca3e2076cc3735a920a3ca505d382bbc546001600160a01b031690565b6001600160a01b03161461083f5760405162461bcd60e51b815260206004820152602c60248201527f46756e6374696f6e206d7573742062652063616c6c6564207468726f7567682060448201526b6163746976652070726f787960a01b60648201526084016103fb565b61084882610cb7565b61085482826001610cbf565b5050565b6000306001600160a01b037f000000000000000000000000000000000000000000000000000000000000000016146108f85760405162461bcd60e51b815260206004820152603860248201527f555550535570677261646561626c653a206d757374206e6f742062652063616c60448201527f6c6564207468726f7567682064656c656761746563616c6c000000000000000060648201526084016103fb565b507f360894a13ba1a3210667c828492db98dca3e2076cc3735a920a3ca505d382bbc90565b610925610e64565b60c9805473ffffffffffffffffffffffffffffffffffffffff19166001600160a01b0392909216919091179055565b61095c610e64565b6109666000610ebe565b565b600054610100900460ff16158080156109885750600054600160ff909116105b806109a25750303b1580156109a2575060005460ff166001145b610a145760405162461bcd60e51b815260206004820152602e60248201527f496e697469616c697a61626c653a20636f6e747261637420697320616c72656160448201527f647920696e697469616c697a656400000000000000000000000000000000000060648201526084016103fb565b6000805460ff191660011790558015610a37576000805461ff0019166101001790555b610a3f610f1d565b80156106e9576000805461ff0019169055604051600181527f7f26b83ff96e1f2b6a682f133852f6798a09c465da95921460cefb38474024989060200160405180910390a150565b610a8f610e64565b60ca805473ffffffffffffffffffffffffffffffffffffffff19166001600160a01b0392909216919091179055565b610ac6610e64565b6001600160a01b038116610b425760405162461bcd60e51b815260206004820152602660248201527f4f776e61626c653a206e6577206f776e657220697320746865207a65726f206160448201527f646472657373000000000000000000000000000000000000000000000000000060648201526084016103fb565b6106e981610ebe565b6001600160a01b038216610ba15760405162461bcd60e51b815260206004820152601c60248201527f43616e6e6f74207472616e7366657220746f203020616464726573730000000060448201526064016103fb565b6001600160a01b038316600090815260cb6020526040902054811115610c095760405162461bcd60e51b815260206004820152601460248201527f496e73756666696369656e742062616c616e636500000000000000000000000060448201526064016103fb565b6001600160a01b038316600090815260cb602052604081208054839290610c31908490611469565b90915550506001600160a01b038216600090815260cb602052604081208054839290610c5e908490611456565b92505081905550816001600160a01b0316836001600160a01b03167fddf252ad1be2c89b69c2b068fc378daa952ba7f163c4a11628f55a4df523b3ef83604051610caa91815260200190565b60405180910390a3505050565b6106e9610e64565b7f4910fdfa16fed3260ed0e7147f7cc6da11a60208b5b9406d12a635614ffd91435460ff1615610cf757610cf283610f90565b505050565b826001600160a01b03166352d1902d6040518163ffffffff1660e01b8152600401602060405180830381865afa925050508015610d51575060408051601f3d908101601f19168201909252610d4e9181019061147c565b60015b610dc35760405162461bcd60e51b815260206004820152602e60248201527f45524331393637557067726164653a206e657720696d706c656d656e7461746960448201527f6f6e206973206e6f74205555505300000000000000000000000000000000000060648201526084016103fb565b7f360894a13ba1a3210667c828492db98dca3e2076cc3735a920a3ca505d382bbc8114610e585760405162461bcd60e51b815260206004820152602960248201527f45524331393637557067726164653a20756e737570706f727465642070726f7860448201527f6961626c6555554944000000000000000000000000000000000000000000000060648201526084016103fb565b50610cf283838361105b565b6033546001600160a01b031633146109665760405162461bcd60e51b815260206004820181905260248201527f4f776e61626c653a2063616c6c6572206973206e6f7420746865206f776e657260448201526064016103fb565b603380546001600160a01b0383811673ffffffffffffffffffffffffffffffffffffffff19831681179093556040519116919082907f8be0079c531659141344cd1fd0a4f28419497f9722a3daafe3b4186f6b6457e090600090a35050565b600054610100900460ff16610f885760405162461bcd60e51b815260206004820152602b60248201527f496e697469616c697a61626c653a20636f6e7472616374206973206e6f74206960448201526a6e697469616c697a696e6760a81b60648201526084016103fb565b610966611086565b6001600160a01b0381163b61100d5760405162461bcd60e51b815260206004820152602d60248201527f455243313936373a206e657720696d706c656d656e746174696f6e206973206e60448201527f6f74206120636f6e74726163740000000000000000000000000000000000000060648201526084016103fb565b7f360894a13ba1a3210667c828492db98dca3e2076cc3735a920a3ca505d382bbc805473ffffffffffffffffffffffffffffffffffffffff19166001600160a01b0392909216919091179055565b611064836110fa565b6000825111806110715750805b15610cf257611080838361113a565b50505050565b600054610100900460ff166110f15760405162461bcd60e51b815260206004820152602b60248201527f496e697469616c697a61626c653a20636f6e7472616374206973206e6f74206960448201526a6e697469616c697a696e6760a81b60648201526084016103fb565b61096633610ebe565b61110381610f90565b6040516001600160a01b038216907fbc7cd75a20ee27fd9adebab32041f755214dbc6bffa90cc0225b39da2e5c2d3b90600090a250565b60606001600160a01b0383163b6111b95760405162461bcd60e51b815260206004820152602660248201527f416464726573733a2064656c65676174652063616c6c20746f206e6f6e2d636f60448201527f6e7472616374000000000000000000000000000000000000000000000000000060648201526084016103fb565b600080846001600160a01b0316846040516111d49190611495565b600060405180830381855af49150503d806000811461120f576040519150601f19603f3d011682016040523d82523d6000602084013e611214565b606091505b509150915061123c82826040518060600160405280602781526020016114b260279139611247565b925050505b92915050565b60608315611256575081610413565b610413838381511561126b5781518083602001fd5b8060405162461bcd60e51b81526004016103fb91906112a9565b60005b838110156112a0578181015183820152602001611288565b50506000910152565b60208152600082518060208401526112c8816040850160208701611285565b601f01601f19169190910160400192915050565b80356001600160a01b03811681146112f357600080fd5b919050565b60008060006060848603121561130d57600080fd5b611316846112dc565b9250611324602085016112dc565b9150604084013590509250925092565b60006020828403121561134657600080fd5b5035919050565b60006020828403121561135f57600080fd5b610413826112dc565b634e487b7160e01b600052604160045260246000fd5b6000806040838503121561139157600080fd5b61139a836112dc565b9150602083013567ffffffffffffffff808211156113b757600080fd5b818501915085601f8301126113cb57600080fd5b8135818111156113dd576113dd611368565b604051601f8201601f19908116603f0116810190838211818310171561140557611405611368565b8160405282815288602084870101111561141e57600080fd5b8260208601602083013760006020848301015280955050505050509250929050565b634e487b7160e01b600052601160045260246000fd5b8082018082111561124157611241611440565b8181038181111561124157611241611440565b60006020828403121561148e57600080fd5b5051919050565b600082516114a7818460208701611285565b919091019291505056fe416464726573733a206c6f772d6c6576656c2064656c65676174652063616c6c206661696c6564a264697066735822122090cfd343f9fe613894b181c66882ee11517cb7c94029e62843348156d3a05f9864736f6c63430008110033",
  "linkReferences": {},
  "deployedLinkReferences": {}
}