{
  "_format": "hh-sol-artifact-1",
  "contractName": "BlurExchange",
  "sourceName": "contracts/BlurExchange.sol",
  "abi": [
    {
      "inputs": [],
      "stateMutability": "nonpayable",
      "type": "constructor"
    },
    {
      "anonymous": false,
      "inputs": [
        {
          "indexed": false,
          "internalType": "address",
          "name": "previousAdmin",
          "type": "address"
        },
        {
          "indexed": false,
          "internalType": "address",
          "name": "newAdmin",
          "type": "address"
        }
      ],
      "name": "AdminChanged",
      "type": "event"
    },
    {
      "anonymous": false,
      "inputs": [
        {
          "indexed": true,
          "internalType": "address",
          "name": "beacon",
          "type": "address"
        }
      ],
      "name": "BeaconUpgraded",
      "type": "event"
    },
    {
      "anonymous": false,
      "inputs": [],
      "name": "Closed",
      "type": "event"
    },
    {
      "anonymous": false,
      "inputs": [
        {
          "indexed": false,
          "internalType": "uint8",
          "name": "version",
          "type": "uint8"
        }
      ],
      "name": "Initialized",
      "type": "event"
    },
    {
      "anonymous": false,
      "inputs": [
        {
          "indexed": false,
          "internalType": "uint256",
          "name": "blockRange",
          "type": "uint256"
        }
      ],
      "name": "NewBlockRange",
      "type": "event"
    },
    {
      "anonymous": false,
      "inputs": [
        {
          "indexed": true,
          "internalType": "contract IExecutionDelegate",
          "name": "executionDelegate",
          "type": "address"
        }
      ],
      "name": "NewExecutionDelegate",
      "type": "event"
    },
    {
      "anonymous": false,
      "inputs": [
        {
          "indexed": true,
          "internalType": "address",
          "name": "oracle",
          "type": "address"
        }
      ],
      "name": "NewOracle",
      "type": "event"
    },
    {
      "anonymous": false,
      "inputs": [
        {
          "indexed": true,
          "internalType": "contract IPolicyManager",
          "name": "policyManager",
          "type": "address"
        }
      ],
      "name": "NewPolicyManager",
      "type": "event"
    },
    {
      "anonymous": false,
      "inputs": [
        {
          "indexed": true,
          "internalType": "address",
          "name": "trader",
          "type": "address"
        },
        {
          "indexed": false,
          "internalType": "uint256",
          "name": "newNonce",
          "type": "uint256"
        }
      ],
      "name": "NonceIncremented",
      "type": "event"
    },
    {
      "anonymous": false,
      "inputs": [],
      "name": "Opened",
      "type": "event"
    },
    {
      "anonymous": false,
      "inputs": [
        {
          "indexed": false,
          "internalType": "bytes32",
          "name": "hash",
          "type": "bytes32"
        }
      ],
      "name": "OrderCancelled",
      "type": "event"
    },
    {
      "anonymous": false,
      "inputs": [
        {
          "indexed": true,
          "internalType": "address",
          "name": "maker",
          "type": "address"
        },
        {
          "indexed": true,
          "internalType": "address",
          "name": "taker",
          "type": "address"
        },
        {
          "components": [
            {
              "internalType": "address",
              "name": "trader",
              "type": "address"
            },
            {
              "internalType": "enum Side",
              "name": "side",
              "type": "uint8"
            },
            {
              "internalType": "address",
              "name": "matchingPolicy",
              "type": "address"
            },
            {
              "internalType": "address",
              "name": "collection",
              "type": "address"
            },
            {
              "internalType": "uint256",
              "name": "tokenId",
              "type": "uint256"
            },
            {
              "internalType": "uint256",
              "name": "amount",
              "type": "uint256"
            },
            {
              "internalType": "address",
              "name": "paymentToken",
              "type": "address"
            },
            {
              "internalType": "uint256",
              "name": "price",
              "type": "uint256"
            },
            {
              "internalType": "uint256",
              "name": "listingTime",
              "type": "uint256"
            },
            {
              "internalType": "uint256",
              "name": "expirationTime",
              "type": "uint256"
            },
            {
              "components": [
                {
                  "internalType": "uint16",
                  "name": "rate",
                  "type": "uint16"
                },
                {
                  "internalType": "address payable",
                  "name": "recipient",
                  "type": "address"
                }
              ],
              "internalType": "struct Fee[]",
              "name": "fees",
              "type": "tuple[]"
            },
            {
              "internalType": "uint256",
              "name": "salt",
              "type": "uint256"
            },
            {
              "internalType": "bytes",
              "name": "extraParams",
              "type": "bytes"
            }
          ],
          "indexed": false,
          "internalType": "struct Order",
          "name": "sell",
          "type": "tuple"
        },
        {
          "indexed": false,
          "internalType": "bytes32",
          "name": "sellHash",
          "type": "bytes32"
        },
        {
          "components": [
            {
              "internalType": "address",
              "name": "trader",
              "type": "address"
            },
            {
              "internalType": "enum Side",
              "name": "side",
              "type": "uint8"
            },
            {
              "internalType": "address",
              "name": "matchingPolicy",
              "type": "address"
            },
            {
              "internalType": "address",
              "name": "collection",
              "type": "address"
            },
            {
              "internalType": "uint256",
              "name": "tokenId",
              "type": "uint256"
            },
            {
              "internalType": "uint256",
              "name": "amount",
              "type": "uint256"
            },
            {
              "internalType": "address",
              "name": "paymentToken",
              "type": "address"
            },
            {
              "internalType": "uint256",
              "name": "price",
              "type": "uint256"
            },
            {
              "internalType": "uint256",
              "name": "listingTime",
              "type": "uint256"
            },
            {
              "internalType": "uint256",
              "name": "expirationTime",
              "type": "uint256"
            },
            {
              "components": [
                {
                  "internalType": "uint16",
                  "name": "rate",
                  "type": "uint16"
                },
                {
                  "internalType": "address payable",
                  "name": "recipient",
                  "type": "address"
                }
              ],
              "internalType": "struct Fee[]",
              "name": "fees",
              "type": "tuple[]"
            },
            {
              "internalType": "uint256",
              "name": "salt",
              "type": "uint256"
            },
            {
              "internalType": "bytes",
              "name": "extraParams",
              "type": "bytes"
            }
          ],
          "indexed": false,
          "internalType": "struct Order",
          "name": "buy",
          "type": "tuple"
        },
        {
          "indexed": false,
          "internalType": "bytes32",
          "name": "buyHash",
          "type": "bytes32"
        }
      ],
      "name": "OrdersMatched",
      "type": "event"
    },
    {
      "anonymous": false,
      "inputs": [
        {
          "indexed": true,
          "internalType": "address",
          "name": "previousOwner",
          "type": "address"
        },
        {
          "indexed": true,
          "internalType": "address",
          "name": "newOwner",
          "type": "address"
        }
      ],
      "name": "OwnershipTransferred",
      "type": "event"
    },
    {
      "anonymous": false,
      "inputs": [
        {
          "indexed": true,
          "internalType": "address",
          "name": "implementation",
          "type": "address"
        }
      ],
      "name": "Upgraded",
      "type": "event"
    },
    {
      "inputs": [],
      "name": "FEE_TYPEHASH",
      "outputs": [
        {
          "internalType": "bytes32",
          "name": "",
          "type": "bytes32"
        }
      ],
      "stateMutability": "view",
      "type": "function"
    },
    {
      "inputs": [],
      "name": "INVERSE_BASIS_POINT",
      "outputs": [
        {
          "internalType": "uint256",
          "name": "",
          "type": "uint256"
        }
      ],
      "stateMutability": "view",
      "type": "function"
    },
    {
      "inputs": [],
      "name": "NAME",
      "outputs": [
        {
          "internalType": "string",
          "name": "",
          "type": "string"
        }
      ],
      "stateMutability": "view",
      "type": "function"
    },
    {
      "inputs": [],
      "name": "ORACLE_ORDER_TYPEHASH",
      "outputs": [
        {
          "internalType": "bytes32",
          "name": "",
          "type": "bytes32"
        }
      ],
      "stateMutability": "view",
      "type": "function"
    },
    {
      "inputs": [],
      "name": "ORDER_TYPEHASH",
      "outputs": [
        {
          "internalType": "bytes32",
          "name": "",
          "type": "bytes32"
        }
      ],
      "stateMutability": "view",
      "type": "function"
    },
    {
      "inputs": [],
      "name": "POOL",
      "outputs": [
        {
          "internalType": "address",
          "name": "",
          "type": "address"
        }
      ],
      "stateMutability": "view",
      "type": "function"
    },
    {
      "inputs": [],
      "name": "ROOT_TYPEHASH",
      "outputs": [
        {
          "internalType": "bytes32",
          "name": "",
          "type": "bytes32"
        }
      ],
      "stateMutability": "view",
      "type": "function"
    },
    {
      "inputs": [],
      "name": "VERSION",
      "outputs": [
        {
          "internalType": "string",
          "name": "",
          "type": "string"
        }
      ],
      "stateMutability": "view",
      "type": "function"
    },
    {
      "inputs": [],
      "name": "WETH",
      "outputs": [
        {
          "internalType": "address",
          "name": "",
          "type": "address"
        }
      ],
      "stateMutability": "view",
      "type": "function"
    },
    {
      "inputs": [
        {
          "components": [
            {
              "components": [
                {
                  "internalType": "address",
                  "name": "trader",
                  "type": "address"
                },
                {
                  "internalType": "enum Side",
                  "name": "side",
                  "type": "uint8"
                },
                {
                  "internalType": "address",
                  "name": "matchingPolicy",
                  "type": "address"
                },
                {
                  "internalType": "address",
                  "name": "collection",
                  "type": "address"
                },
                {
                  "internalType": "uint256",
                  "name": "tokenId",
                  "type": "uint256"
                },
                {
                  "internalType": "uint256",
                  "name": "amount",
                  "type": "uint256"
                },
                {
                  "internalType": "address",
                  "name": "paymentToken",
                  "type": "address"
                },
                {
                  "internalType": "uint256",
                  "name": "price",
                  "type": "uint256"
                },
                {
                  "internalType": "uint256",
                  "name": "listingTime",
                  "type": "uint256"
                },
                {
                  "internalType": "uint256",
                  "name": "expirationTime",
                  "type": "uint256"
                },
                {
                  "components": [
                    {
                      "internalType": "uint16",
                      "name": "rate",
                      "type": "uint16"
                    },
                    {
                      "internalType": "address payable",
                      "name": "recipient",
                      "type": "address"
                    }
                  ],
                  "internalType": "struct Fee[]",
                  "name": "fees",
                  "type": "tuple[]"
                },
                {
                  "internalType": "uint256",
                  "name": "salt",
                  "type": "uint256"
                },
                {
                  "internalType": "bytes",
                  "name": "extraParams",
                  "type": "bytes"
                }
              ],
              "internalType": "struct Order",
              "name": "order",
              "type": "tuple"
            },
            {
              "internalType": "uint8",
              "name": "v",
              "type": "uint8"
            },
            {
              "internalType": "bytes32",
              "name": "r",
              "type": "bytes32"
            },
            {
              "internalType": "bytes32",
              "name": "s",
              "type": "bytes32"
            },
            {
              "internalType": "bytes",
              "name": "extraSignature",
              "type": "bytes"
            },
            {
              "internalType": "enum SignatureVersion",
              "name": "signatureVersion",
              "type": "uint8"
            },
            {
              "internalType": "uint256",
              "name": "blockNumber",
              "type": "uint256"
            }
          ],
          "internalType": "struct Input",
          "name": "sell",
          "type": "tuple"
        },
        {
          "components": [
            {
              "components": [
                {
                  "internalType": "address",
                  "name": "trader",
                  "type": "address"
                },
                {
                  "internalType": "enum Side",
                  "name": "side",
                  "type": "uint8"
                },
                {
                  "internalType": "address",
                  "name": "matchingPolicy",
                  "type": "address"
                },
                {
                  "internalType": "address",
                  "name": "collection",
                  "type": "address"
                },
                {
                  "internalType": "uint256",
                  "name": "tokenId",
                  "type": "uint256"
                },
                {
                  "internalType": "uint256",
                  "name": "amount",
                  "type": "uint256"
                },
                {
                  "internalType": "address",
                  "name": "paymentToken",
                  "type": "address"
                },
                {
                  "internalType": "uint256",
                  "name": "price",
                  "type": "uint256"
                },
                {
                  "internalType": "uint256",
                  "name": "listingTime",
                  "type": "uint256"
                },
                {
                  "internalType": "uint256",
                  "name": "expirationTime",
                  "type": "uint256"
                },
                {
                  "components": [
                    {
                      "internalType": "uint16",
                      "name": "rate",
                      "type": "uint16"
                    },
                    {
                      "internalType": "address payable",
                      "name": "recipient",
                      "type": "address"
                    }
                  ],
                  "internalType": "struct Fee[]",
                  "name": "fees",
                  "type": "tuple[]"
                },
                {
                  "internalType": "uint256",
                  "name": "salt",
                  "type": "uint256"
                },
                {
                  "internalType": "bytes",
                  "name": "extraParams",
                  "type": "bytes"
                }
              ],
              "internalType": "struct Order",
              "name": "order",
              "type": "tuple"
            },
            {
              "internalType": "uint8",
              "name": "v",
              "type": "uint8"
            },
            {
              "internalType": "bytes32",
              "name": "r",
              "type": "bytes32"
            },
            {
              "internalType": "bytes32",
              "name": "s",
              "type": "bytes32"
            },
            {
              "internalType": "bytes",
              "name": "extraSignature",
              "type": "bytes"
            },
            {
              "internalType": "enum SignatureVersion",
              "name": "signatureVersion",
              "type": "uint8"
            },
            {
              "internalType": "uint256",
              "name": "blockNumber",
              "type": "uint256"
            }
          ],
          "internalType": "struct Input",
          "name": "buy",
          "type": "tuple"
        }
      ],
      "name": "_execute",
      "outputs": [],
      "stateMutability": "payable",
      "type": "function"
    },
    {
      "inputs": [
        {
          "components": [
            {
              "components": [
                {
                  "internalType": "address",
                  "name": "trader",
                  "type": "address"
                },
                {
                  "internalType": "enum Side",
                  "name": "side",
                  "type": "uint8"
                },
                {
                  "internalType": "address",
                  "name": "matchingPolicy",
                  "type": "address"
                },
                {
                  "internalType": "address",
                  "name": "collection",
                  "type": "address"
                },
                {
                  "internalType": "uint256",
                  "name": "tokenId",
                  "type": "uint256"
                },
                {
                  "internalType": "uint256",
                  "name": "amount",
                  "type": "uint256"
                },
                {
                  "internalType": "address",
                  "name": "paymentToken",
                  "type": "address"
                },
                {
                  "internalType": "uint256",
                  "name": "price",
                  "type": "uint256"
                },
                {
                  "internalType": "uint256",
                  "name": "listingTime",
                  "type": "uint256"
                },
                {
                  "internalType": "uint256",
                  "name": "expirationTime",
                  "type": "uint256"
                },
                {
                  "components": [
                    {
                      "internalType": "uint16",
                      "name": "rate",
                      "type": "uint16"
                    },
                    {
                      "internalType": "address payable",
                      "name": "recipient",
                      "type": "address"
                    }
                  ],
                  "internalType": "struct Fee[]",
                  "name": "fees",
                  "type": "tuple[]"
                },
                {
                  "internalType": "uint256",
                  "name": "salt",
                  "type": "uint256"
                },
                {
                  "internalType": "bytes",
                  "name": "extraParams",
                  "type": "bytes"
                }
              ],
              "internalType": "struct Order",
              "name": "order",
              "type": "tuple"
            },
            {
              "internalType": "uint8",
              "name": "v",
              "type": "uint8"
            },
            {
              "internalType": "bytes32",
              "name": "r",
              "type": "bytes32"
            },
            {
              "internalType": "bytes32",
              "name": "s",
              "type": "bytes32"
            },
            {
              "internalType": "bytes",
              "name": "extraSignature",
              "type": "bytes"
            },
            {
              "internalType": "enum SignatureVersion",
              "name": "signatureVersion",
              "type": "uint8"
            },
            {
              "internalType": "uint256",
              "name": "blockNumber",
              "type": "uint256"
            }
          ],
          "internalType": "struct Input",
          "name": "sell",
          "type": "tuple"
        },
        {
          "components": [
            {
              "components": [
                {
                  "internalType": "address",
                  "name": "trader",
                  "type": "address"
                },
                {
                  "internalType": "enum Side",
                  "name": "side",
                  "type": "uint8"
                },
                {
                  "internalType": "address",
                  "name": "matchingPolicy",
                  "type": "address"
                },
                {
                  "internalType": "address",
                  "name": "collection",
                  "type": "address"
                },
                {
                  "internalType": "uint256",
                  "name": "tokenId",
                  "type": "uint256"
                },
                {
                  "internalType": "uint256",
                  "name": "amount",
                  "type": "uint256"
                },
                {
                  "internalType": "address",
                  "name": "paymentToken",
                  "type": "address"
                },
                {
                  "internalType": "uint256",
                  "name": "price",
                  "type": "uint256"
                },
                {
                  "internalType": "uint256",
                  "name": "listingTime",
                  "type": "uint256"
                },
                {
                  "internalType": "uint256",
                  "name": "expirationTime",
                  "type": "uint256"
                },
                {
                  "components": [
                    {
                      "internalType": "uint16",
                      "name": "rate",
                      "type": "uint16"
                    },
                    {
                      "internalType": "address payable",
                      "name": "recipient",
                      "type": "address"
                    }
                  ],
                  "internalType": "struct Fee[]",
                  "name": "fees",
                  "type": "tuple[]"
                },
                {
                  "internalType": "uint256",
                  "name": "salt",
                  "type": "uint256"
                },
                {
                  "internalType": "bytes",
                  "name": "extraParams",
                  "type": "bytes"
                }
              ],
              "internalType": "struct Order",
              "name": "order",
              "type": "tuple"
            },
            {
              "internalType": "uint8",
              "name": "v",
              "type": "uint8"
            },
            {
              "internalType": "bytes32",
              "name": "r",
              "type": "bytes32"
            },
            {
              "internalType": "bytes32",
              "name": "s",
              "type": "bytes32"
            },
            {
              "internalType": "bytes",
              "name": "extraSignature",
              "type": "bytes"
            },
            {
              "internalType": "enum SignatureVersion",
              "name": "signatureVersion",
              "type": "uint8"
            },
            {
              "internalType": "uint256",
              "name": "blockNumber",
              "type": "uint256"
            }
          ],
          "internalType": "struct Input",
          "name": "buy",
          "type": "tuple"
        },
        {
          "internalType": "uint8",
          "name": "step",
          "type": "uint8"
        }
      ],
      "name": "_testexecute",
      "outputs": [],
      "stateMutability": "payable",
      "type": "function"
    },
    {
      "inputs": [],
      "name": "blockRange",
      "outputs": [
        {
          "internalType": "uint256",
          "name": "",
          "type": "uint256"
        }
      ],
      "stateMutability": "view",
      "type": "function"
    },
    {
      "inputs": [
        {
          "components": [
            {
              "components": [
                {
                  "components": [
                    {
                      "internalType": "address",
                      "name": "trader",
                      "type": "address"
                    },
                    {
                      "internalType": "enum Side",
                      "name": "side",
                      "type": "uint8"
                    },
                    {
                      "internalType": "address",
                      "name": "matchingPolicy",
                      "type": "address"
                    },
                    {
                      "internalType": "address",
                      "name": "collection",
                      "type": "address"
                    },
                    {
                      "internalType": "uint256",
                      "name": "tokenId",
                      "type": "uint256"
                    },
                    {
                      "internalType": "uint256",
                      "name": "amount",
                      "type": "uint256"
                    },
                    {
                      "internalType": "address",
                      "name": "paymentToken",
                      "type": "address"
                    },
                    {
                      "internalType": "uint256",
                      "name": "price",
                      "type": "uint256"
                    },
                    {
                      "internalType": "uint256",
                      "name": "listingTime",
                      "type": "uint256"
                    },
                    {
                      "internalType": "uint256",
                      "name": "expirationTime",
                      "type": "uint256"
                    },
                    {
                      "components": [
                        {
                          "internalType": "uint16",
                          "name": "rate",
                          "type": "uint16"
                        },
                        {
                          "internalType": "address payable",
                          "name": "recipient",
                          "type": "address"
                        }
                      ],
                      "internalType": "struct Fee[]",
                      "name": "fees",
                      "type": "tuple[]"
                    },
                    {
                      "internalType": "uint256",
                      "name": "salt",
                      "type": "uint256"
                    },
                    {
                      "internalType": "bytes",
                      "name": "extraParams",
                      "type": "bytes"
                    }
                  ],
                  "internalType": "struct Order",
                  "name": "order",
                  "type": "tuple"
                },
                {
                  "internalType": "uint8",
                  "name": "v",
                  "type": "uint8"
                },
                {
                  "internalType": "bytes32",
                  "name": "r",
                  "type": "bytes32"
                },
                {
                  "internalType": "bytes32",
                  "name": "s",
                  "type": "bytes32"
                },
                {
                  "internalType": "bytes",
                  "name": "extraSignature",
                  "type": "bytes"
                },
                {
                  "internalType": "enum SignatureVersion",
                  "name": "signatureVersion",
                  "type": "uint8"
                },
                {
                  "internalType": "uint256",
                  "name": "blockNumber",
                  "type": "uint256"
                }
              ],
              "internalType": "struct Input",
              "name": "sell",
              "type": "tuple"
            },
            {
              "components": [
                {
                  "components": [
                    {
                      "internalType": "address",
                      "name": "trader",
                      "type": "address"
                    },
                    {
                      "internalType": "enum Side",
                      "name": "side",
                      "type": "uint8"
                    },
                    {
                      "internalType": "address",
                      "name": "matchingPolicy",
                      "type": "address"
                    },
                    {
                      "internalType": "address",
                      "name": "collection",
                      "type": "address"
                    },
                    {
                      "internalType": "uint256",
                      "name": "tokenId",
                      "type": "uint256"
                    },
                    {
                      "internalType": "uint256",
                      "name": "amount",
                      "type": "uint256"
                    },
                    {
                      "internalType": "address",
                      "name": "paymentToken",
                      "type": "address"
                    },
                    {
                      "internalType": "uint256",
                      "name": "price",
                      "type": "uint256"
                    },
                    {
                      "internalType": "uint256",
                      "name": "listingTime",
                      "type": "uint256"
                    },
                    {
                      "internalType": "uint256",
                      "name": "expirationTime",
                      "type": "uint256"
                    },
                    {
                      "components": [
                        {
                          "internalType": "uint16",
                          "name": "rate",
                          "type": "uint16"
                        },
                        {
                          "internalType": "address payable",
                          "name": "recipient",
                          "type": "address"
                        }
                      ],
                      "internalType": "struct Fee[]",
                      "name": "fees",
                      "type": "tuple[]"
                    },
                    {
                      "internalType": "uint256",
                      "name": "salt",
                      "type": "uint256"
                    },
                    {
                      "internalType": "bytes",
                      "name": "extraParams",
                      "type": "bytes"
                    }
                  ],
                  "internalType": "struct Order",
                  "name": "order",
                  "type": "tuple"
                },
                {
                  "internalType": "uint8",
                  "name": "v",
                  "type": "uint8"
                },
                {
                  "internalType": "bytes32",
                  "name": "r",
                  "type": "bytes32"
                },
                {
                  "internalType": "bytes32",
                  "name": "s",
                  "type": "bytes32"
                },
                {
                  "internalType": "bytes",
                  "name": "extraSignature",
                  "type": "bytes"
                },
                {
                  "internalType": "enum SignatureVersion",
                  "name": "signatureVersion",
                  "type": "uint8"
                },
                {
                  "internalType": "uint256",
                  "name": "blockNumber",
                  "type": "uint256"
                }
              ],
              "internalType": "struct Input",
              "name": "buy",
              "type": "tuple"
            }
          ],
          "internalType": "struct Execution[]",
          "name": "executions",
          "type": "tuple[]"
        }
      ],
      "name": "bulkExecute",
      "outputs": [],
      "stateMutability": "payable",
      "type": "function"
    },
    {
      "inputs": [
        {
          "components": [
            {
              "internalType": "address",
              "name": "trader",
              "type": "address"
            },
            {
              "internalType": "enum Side",
              "name": "side",
              "type": "uint8"
            },
            {
              "internalType": "address",
              "name": "matchingPolicy",
              "type": "address"
            },
            {
              "internalType": "address",
              "name": "collection",
              "type": "address"
            },
            {
              "internalType": "uint256",
              "name": "tokenId",
              "type": "uint256"
            },
            {
              "internalType": "uint256",
              "name": "amount",
              "type": "uint256"
            },
            {
              "internalType": "address",
              "name": "paymentToken",
              "type": "address"
            },
            {
              "internalType": "uint256",
              "name": "price",
              "type": "uint256"
            },
            {
              "internalType": "uint256",
              "name": "listingTime",
              "type": "uint256"
            },
            {
              "internalType": "uint256",
              "name": "expirationTime",
              "type": "uint256"
            },
            {
              "components": [
                {
                  "internalType": "uint16",
                  "name": "rate",
                  "type": "uint16"
                },
                {
                  "internalType": "address payable",
                  "name": "recipient",
                  "type": "address"
                }
              ],
              "internalType": "struct Fee[]",
              "name": "fees",
              "type": "tuple[]"
            },
            {
              "internalType": "uint256",
              "name": "salt",
              "type": "uint256"
            },
            {
              "internalType": "bytes",
              "name": "extraParams",
              "type": "bytes"
            }
          ],
          "internalType": "struct Order",
          "name": "order",
          "type": "tuple"
        }
      ],
      "name": "cancelOrder",
      "outputs": [],
      "stateMutability": "nonpayable",
      "type": "function"
    },
    {
      "inputs": [
        {
          "components": [
            {
              "internalType": "address",
              "name": "trader",
              "type": "address"
            },
            {
              "internalType": "enum Side",
              "name": "side",
              "type": "uint8"
            },
            {
              "internalType": "address",
              "name": "matchingPolicy",
              "type": "address"
            },
            {
              "internalType": "address",
              "name": "collection",
              "type": "address"
            },
            {
              "internalType": "uint256",
              "name": "tokenId",
              "type": "uint256"
            },
            {
              "internalType": "uint256",
              "name": "amount",
              "type": "uint256"
            },
            {
              "internalType": "address",
              "name": "paymentToken",
              "type": "address"
            },
            {
              "internalType": "uint256",
              "name": "price",
              "type": "uint256"
            },
            {
              "internalType": "uint256",
              "name": "listingTime",
              "type": "uint256"
            },
            {
              "internalType": "uint256",
              "name": "expirationTime",
              "type": "uint256"
            },
            {
              "components": [
                {
                  "internalType": "uint16",
                  "name": "rate",
                  "type": "uint16"
                },
                {
                  "internalType": "address payable",
                  "name": "recipient",
                  "type": "address"
                }
              ],
              "internalType": "struct Fee[]",
              "name": "fees",
              "type": "tuple[]"
            },
            {
              "internalType": "uint256",
              "name": "salt",
              "type": "uint256"
            },
            {
              "internalType": "bytes",
              "name": "extraParams",
              "type": "bytes"
            }
          ],
          "internalType": "struct Order[]",
          "name": "orders",
          "type": "tuple[]"
        }
      ],
      "name": "cancelOrders",
      "outputs": [],
      "stateMutability": "nonpayable",
      "type": "function"
    },
    {
      "inputs": [
        {
          "internalType": "bytes32",
          "name": "",
          "type": "bytes32"
        }
      ],
      "name": "cancelledOrFilled",
      "outputs": [
        {
          "internalType": "bool",
          "name": "",
          "type": "bool"
        }
      ],
      "stateMutability": "view",
      "type": "function"
    },
    {
      "inputs": [
        {
          "internalType": "address",
          "name": "_pool",
          "type": "address"
        }
      ],
      "name": "changePool",
      "outputs": [],
      "stateMutability": "nonpayable",
      "type": "function"
    },
    {
      "inputs": [],
      "name": "close",
      "outputs": [],
      "stateMutability": "nonpayable",
      "type": "function"
    },
    {
      "inputs": [
        {
          "components": [
            {
              "components": [
                {
                  "internalType": "address",
                  "name": "trader",
                  "type": "address"
                },
                {
                  "internalType": "enum Side",
                  "name": "side",
                  "type": "uint8"
                },
                {
                  "internalType": "address",
                  "name": "matchingPolicy",
                  "type": "address"
                },
                {
                  "internalType": "address",
                  "name": "collection",
                  "type": "address"
                },
                {
                  "internalType": "uint256",
                  "name": "tokenId",
                  "type": "uint256"
                },
                {
                  "internalType": "uint256",
                  "name": "amount",
                  "type": "uint256"
                },
                {
                  "internalType": "address",
                  "name": "paymentToken",
                  "type": "address"
                },
                {
                  "internalType": "uint256",
                  "name": "price",
                  "type": "uint256"
                },
                {
                  "internalType": "uint256",
                  "name": "listingTime",
                  "type": "uint256"
                },
                {
                  "internalType": "uint256",
                  "name": "expirationTime",
                  "type": "uint256"
                },
                {
                  "components": [
                    {
                      "internalType": "uint16",
                      "name": "rate",
                      "type": "uint16"
                    },
                    {
                      "internalType": "address payable",
                      "name": "recipient",
                      "type": "address"
                    }
                  ],
                  "internalType": "struct Fee[]",
                  "name": "fees",
                  "type": "tuple[]"
                },
                {
                  "internalType": "uint256",
                  "name": "salt",
                  "type": "uint256"
                },
                {
                  "internalType": "bytes",
                  "name": "extraParams",
                  "type": "bytes"
                }
              ],
              "internalType": "struct Order",
              "name": "order",
              "type": "tuple"
            },
            {
              "internalType": "uint8",
              "name": "v",
              "type": "uint8"
            },
            {
              "internalType": "bytes32",
              "name": "r",
              "type": "bytes32"
            },
            {
              "internalType": "bytes32",
              "name": "s",
              "type": "bytes32"
            },
            {
              "internalType": "bytes",
              "name": "extraSignature",
              "type": "bytes"
            },
            {
              "internalType": "enum SignatureVersion",
              "name": "signatureVersion",
              "type": "uint8"
            },
            {
              "internalType": "uint256",
              "name": "blockNumber",
              "type": "uint256"
            }
          ],
          "internalType": "struct Input",
          "name": "sell",
          "type": "tuple"
        },
        {
          "components": [
            {
              "components": [
                {
                  "internalType": "address",
                  "name": "trader",
                  "type": "address"
                },
                {
                  "internalType": "enum Side",
                  "name": "side",
                  "type": "uint8"
                },
                {
                  "internalType": "address",
                  "name": "matchingPolicy",
                  "type": "address"
                },
                {
                  "internalType": "address",
                  "name": "collection",
                  "type": "address"
                },
                {
                  "internalType": "uint256",
                  "name": "tokenId",
                  "type": "uint256"
                },
                {
                  "internalType": "uint256",
                  "name": "amount",
                  "type": "uint256"
                },
                {
                  "internalType": "address",
                  "name": "paymentToken",
                  "type": "address"
                },
                {
                  "internalType": "uint256",
                  "name": "price",
                  "type": "uint256"
                },
                {
                  "internalType": "uint256",
                  "name": "listingTime",
                  "type": "uint256"
                },
                {
                  "internalType": "uint256",
                  "name": "expirationTime",
                  "type": "uint256"
                },
                {
                  "components": [
                    {
                      "internalType": "uint16",
                      "name": "rate",
                      "type": "uint16"
                    },
                    {
                      "internalType": "address payable",
                      "name": "recipient",
                      "type": "address"
                    }
                  ],
                  "internalType": "struct Fee[]",
                  "name": "fees",
                  "type": "tuple[]"
                },
                {
                  "internalType": "uint256",
                  "name": "salt",
                  "type": "uint256"
                },
                {
                  "internalType": "bytes",
                  "name": "extraParams",
                  "type": "bytes"
                }
              ],
              "internalType": "struct Order",
              "name": "order",
              "type": "tuple"
            },
            {
              "internalType": "uint8",
              "name": "v",
              "type": "uint8"
            },
            {
              "internalType": "bytes32",
              "name": "r",
              "type": "bytes32"
            },
            {
              "internalType": "bytes32",
              "name": "s",
              "type": "bytes32"
            },
            {
              "internalType": "bytes",
              "name": "extraSignature",
              "type": "bytes"
            },
            {
              "internalType": "enum SignatureVersion",
              "name": "signatureVersion",
              "type": "uint8"
            },
            {
              "internalType": "uint256",
              "name": "blockNumber",
              "type": "uint256"
            }
          ],
          "internalType": "struct Input",
          "name": "buy",
          "type": "tuple"
        }
      ],
      "name": "execute",
      "outputs": [],
      "stateMutability": "payable",
      "type": "function"
    },
    {
      "inputs": [],
      "name": "executionDelegate",
      "outputs": [
        {
          "internalType": "contract IExecutionDelegate",
          "name": "",
          "type": "address"
        }
      ],
      "stateMutability": "view",
      "type": "function"
    },
    {
      "inputs": [],
      "name": "incrementNonce",
      "outputs": [],
      "stateMutability": "nonpayable",
      "type": "function"
    },
    {
      "inputs": [
        {
          "internalType": "contract IExecutionDelegate",
          "name": "_executionDelegate",
          "type": "address"
        },
        {
          "internalType": "contract IPolicyManager",
          "name": "_policyManager",
          "type": "address"
        },
        {
          "internalType": "address",
          "name": "_oracle",
          "type": "address"
        },
        {
          "internalType": "uint256",
          "name": "_blockRange",
          "type": "uint256"
        }
      ],
      "name": "initialize",
      "outputs": [],
      "stateMutability": "nonpayable",
      "type": "function"
    },
    {
      "inputs": [],
      "name": "isInternal",
      "outputs": [
        {
          "internalType": "bool",
          "name": "",
          "type": "bool"
        }
      ],
      "stateMutability": "view",
      "type": "function"
    },
    {
      "inputs": [],
      "name": "isOpen",
      "outputs": [
        {
          "internalType": "uint256",
          "name": "",
          "type": "uint256"
        }
      ],
      "stateMutability": "view",
      "type": "function"
    },
    {
      "inputs": [
        {
          "internalType": "address",
          "name": "",
          "type": "address"
        }
      ],
      "name": "nonces",
      "outputs": [
        {
          "internalType": "uint256",
          "name": "",
          "type": "uint256"
        }
      ],
      "stateMutability": "view",
      "type": "function"
    },
    {
      "inputs": [],
      "name": "open",
      "outputs": [],
      "stateMutability": "nonpayable",
      "type": "function"
    },
    {
      "inputs": [],
      "name": "oracle",
      "outputs": [
        {
          "internalType": "address",
          "name": "",
          "type": "address"
        }
      ],
      "stateMutability": "view",
      "type": "function"
    },
    {
      "inputs": [],
      "name": "owner",
      "outputs": [
        {
          "internalType": "address",
          "name": "",
          "type": "address"
        }
      ],
      "stateMutability": "view",
      "type": "function"
    },
    {
      "inputs": [],
      "name": "policyManager",
      "outputs": [
        {
          "internalType": "contract IPolicyManager",
          "name": "",
          "type": "address"
        }
      ],
      "stateMutability": "view",
      "type": "function"
    },
    {
      "inputs": [],
      "name": "proxiableUUID",
      "outputs": [
        {
          "internalType": "bytes32",
          "name": "",
          "type": "bytes32"
        }
      ],
      "stateMutability": "view",
      "type": "function"
    },
    {
      "inputs": [],
      "name": "remainingETH",
      "outputs": [
        {
          "internalType": "uint256",
          "name": "",
          "type": "uint256"
        }
      ],
      "stateMutability": "view",
      "type": "function"
    },
    {
      "inputs": [],
      "name": "renounceOwnership",
      "outputs": [],
      "stateMutability": "nonpayable",
      "type": "function"
    },
    {
      "inputs": [
        {
          "internalType": "uint256",
          "name": "_blockRange",
          "type": "uint256"
        }
      ],
      "name": "setBlockRange",
      "outputs": [],
      "stateMutability": "nonpayable",
      "type": "function"
    },
    {
      "inputs": [
        {
          "internalType": "contract IExecutionDelegate",
          "name": "_executionDelegate",
          "type": "address"
        }
      ],
      "name": "setExecutionDelegate",
      "outputs": [],
      "stateMutability": "nonpayable",
      "type": "function"
    },
    {
      "inputs": [
        {
          "internalType": "address",
          "name": "_oracle",
          "type": "address"
        }
      ],
      "name": "setOracle",
      "outputs": [],
      "stateMutability": "nonpayable",
      "type": "function"
    },
    {
      "inputs": [
        {
          "internalType": "contract IPolicyManager",
          "name": "_policyManager",
          "type": "address"
        }
      ],
      "name": "setPolicyManager",
      "outputs": [],
      "stateMutability": "nonpayable",
      "type": "function"
    },
    {
      "inputs": [
        {
          "components": [
            {
              "components": [
                {
                  "internalType": "address",
                  "name": "trader",
                  "type": "address"
                },
                {
                  "internalType": "enum Side",
                  "name": "side",
                  "type": "uint8"
                },
                {
                  "internalType": "address",
                  "name": "matchingPolicy",
                  "type": "address"
                },
                {
                  "internalType": "address",
                  "name": "collection",
                  "type": "address"
                },
                {
                  "internalType": "uint256",
                  "name": "tokenId",
                  "type": "uint256"
                },
                {
                  "internalType": "uint256",
                  "name": "amount",
                  "type": "uint256"
                },
                {
                  "internalType": "address",
                  "name": "paymentToken",
                  "type": "address"
                },
                {
                  "internalType": "uint256",
                  "name": "price",
                  "type": "uint256"
                },
                {
                  "internalType": "uint256",
                  "name": "listingTime",
                  "type": "uint256"
                },
                {
                  "internalType": "uint256",
                  "name": "expirationTime",
                  "type": "uint256"
                },
                {
                  "components": [
                    {
                      "internalType": "uint16",
                      "name": "rate",
                      "type": "uint16"
                    },
                    {
                      "internalType": "address payable",
                      "name": "recipient",
                      "type": "address"
                    }
                  ],
                  "internalType": "struct Fee[]",
                  "name": "fees",
                  "type": "tuple[]"
                },
                {
                  "internalType": "uint256",
                  "name": "salt",
                  "type": "uint256"
                },
                {
                  "internalType": "bytes",
                  "name": "extraParams",
                  "type": "bytes"
                }
              ],
              "internalType": "struct Order",
              "name": "order",
              "type": "tuple"
            },
            {
              "internalType": "uint8",
              "name": "v",
              "type": "uint8"
            },
            {
              "internalType": "bytes32",
              "name": "r",
              "type": "bytes32"
            },
            {
              "internalType": "bytes32",
              "name": "s",
              "type": "bytes32"
            },
            {
              "internalType": "bytes",
              "name": "extraSignature",
              "type": "bytes"
            },
            {
              "internalType": "enum SignatureVersion",
              "name": "signatureVersion",
              "type": "uint8"
            },
            {
              "internalType": "uint256",
              "name": "blockNumber",
              "type": "uint256"
            }
          ],
          "internalType": "struct Input",
          "name": "sell",
          "type": "tuple"
        },
        {
          "components": [
            {
              "components": [
                {
                  "internalType": "address",
                  "name": "trader",
                  "type": "address"
                },
                {
                  "internalType": "enum Side",
                  "name": "side",
                  "type": "uint8"
                },
                {
                  "internalType": "address",
                  "name": "matchingPolicy",
                  "type": "address"
                },
                {
                  "internalType": "address",
                  "name": "collection",
                  "type": "address"
                },
                {
                  "internalType": "uint256",
                  "name": "tokenId",
                  "type": "uint256"
                },
                {
                  "internalType": "uint256",
                  "name": "amount",
                  "type": "uint256"
                },
                {
                  "internalType": "address",
                  "name": "paymentToken",
                  "type": "address"
                },
                {
                  "internalType": "uint256",
                  "name": "price",
                  "type": "uint256"
                },
                {
                  "internalType": "uint256",
                  "name": "listingTime",
                  "type": "uint256"
                },
                {
                  "internalType": "uint256",
                  "name": "expirationTime",
                  "type": "uint256"
                },
                {
                  "components": [
                    {
                      "internalType": "uint16",
                      "name": "rate",
                      "type": "uint16"
                    },
                    {
                      "internalType": "address payable",
                      "name": "recipient",
                      "type": "address"
                    }
                  ],
                  "internalType": "struct Fee[]",
                  "name": "fees",
                  "type": "tuple[]"
                },
                {
                  "internalType": "uint256",
                  "name": "salt",
                  "type": "uint256"
                },
                {
                  "internalType": "bytes",
                  "name": "extraParams",
                  "type": "bytes"
                }
              ],
              "internalType": "struct Order",
              "name": "order",
              "type": "tuple"
            },
            {
              "internalType": "uint8",
              "name": "v",
              "type": "uint8"
            },
            {
              "internalType": "bytes32",
              "name": "r",
              "type": "bytes32"
            },
            {
              "internalType": "bytes32",
              "name": "s",
              "type": "bytes32"
            },
            {
              "internalType": "bytes",
              "name": "extraSignature",
              "type": "bytes"
            },
            {
              "internalType": "enum SignatureVersion",
              "name": "signatureVersion",
              "type": "uint8"
            },
            {
              "internalType": "uint256",
              "name": "blockNumber",
              "type": "uint256"
            }
          ],
          "internalType": "struct Input",
          "name": "buy",
          "type": "tuple"
        },
        {
          "internalType": "uint8",
          "name": "step",
          "type": "uint8"
        }
      ],
      "name": "testExecute",
      "outputs": [],
      "stateMutability": "payable",
      "type": "function"
    },
    {
      "inputs": [
        {
          "components": [
            {
              "components": [
                {
                  "internalType": "address",
                  "name": "trader",
                  "type": "address"
                },
                {
                  "internalType": "enum Side",
                  "name": "side",
                  "type": "uint8"
                },
                {
                  "internalType": "address",
                  "name": "matchingPolicy",
                  "type": "address"
                },
                {
                  "internalType": "address",
                  "name": "collection",
                  "type": "address"
                },
                {
                  "internalType": "uint256",
                  "name": "tokenId",
                  "type": "uint256"
                },
                {
                  "internalType": "uint256",
                  "name": "amount",
                  "type": "uint256"
                },
                {
                  "internalType": "address",
                  "name": "paymentToken",
                  "type": "address"
                },
                {
                  "internalType": "uint256",
                  "name": "price",
                  "type": "uint256"
                },
                {
                  "internalType": "uint256",
                  "name": "listingTime",
                  "type": "uint256"
                },
                {
                  "internalType": "uint256",
                  "name": "expirationTime",
                  "type": "uint256"
                },
                {
                  "components": [
                    {
                      "internalType": "uint16",
                      "name": "rate",
                      "type": "uint16"
                    },
                    {
                      "internalType": "address payable",
                      "name": "recipient",
                      "type": "address"
                    }
                  ],
                  "internalType": "struct Fee[]",
                  "name": "fees",
                  "type": "tuple[]"
                },
                {
                  "internalType": "uint256",
                  "name": "salt",
                  "type": "uint256"
                },
                {
                  "internalType": "bytes",
                  "name": "extraParams",
                  "type": "bytes"
                }
              ],
              "internalType": "struct Order",
              "name": "order",
              "type": "tuple"
            },
            {
              "internalType": "uint8",
              "name": "v",
              "type": "uint8"
            },
            {
              "internalType": "bytes32",
              "name": "r",
              "type": "bytes32"
            },
            {
              "internalType": "bytes32",
              "name": "s",
              "type": "bytes32"
            },
            {
              "internalType": "bytes",
              "name": "extraSignature",
              "type": "bytes"
            },
            {
              "internalType": "enum SignatureVersion",
              "name": "signatureVersion",
              "type": "uint8"
            },
            {
              "internalType": "uint256",
              "name": "blockNumber",
              "type": "uint256"
            }
          ],
          "internalType": "struct Input",
          "name": "sell",
          "type": "tuple"
        },
        {
          "components": [
            {
              "components": [
                {
                  "internalType": "address",
                  "name": "trader",
                  "type": "address"
                },
                {
                  "internalType": "enum Side",
                  "name": "side",
                  "type": "uint8"
                },
                {
                  "internalType": "address",
                  "name": "matchingPolicy",
                  "type": "address"
                },
                {
                  "internalType": "address",
                  "name": "collection",
                  "type": "address"
                },
                {
                  "internalType": "uint256",
                  "name": "tokenId",
                  "type": "uint256"
                },
                {
                  "internalType": "uint256",
                  "name": "amount",
                  "type": "uint256"
                },
                {
                  "internalType": "address",
                  "name": "paymentToken",
                  "type": "address"
                },
                {
                  "internalType": "uint256",
                  "name": "price",
                  "type": "uint256"
                },
                {
                  "internalType": "uint256",
                  "name": "listingTime",
                  "type": "uint256"
                },
                {
                  "internalType": "uint256",
                  "name": "expirationTime",
                  "type": "uint256"
                },
                {
                  "components": [
                    {
                      "internalType": "uint16",
                      "name": "rate",
                      "type": "uint16"
                    },
                    {
                      "internalType": "address payable",
                      "name": "recipient",
                      "type": "address"
                    }
                  ],
                  "internalType": "struct Fee[]",
                  "name": "fees",
                  "type": "tuple[]"
                },
                {
                  "internalType": "uint256",
                  "name": "salt",
                  "type": "uint256"
                },
                {
                  "internalType": "bytes",
                  "name": "extraParams",
                  "type": "bytes"
                }
              ],
              "internalType": "struct Order",
              "name": "order",
              "type": "tuple"
            },
            {
              "internalType": "uint8",
              "name": "v",
              "type": "uint8"
            },
            {
              "internalType": "bytes32",
              "name": "r",
              "type": "bytes32"
            },
            {
              "internalType": "bytes32",
              "name": "s",
              "type": "bytes32"
            },
            {
              "internalType": "bytes",
              "name": "extraSignature",
              "type": "bytes"
            },
            {
              "internalType": "enum SignatureVersion",
              "name": "signatureVersion",
              "type": "uint8"
            },
            {
              "internalType": "uint256",
              "name": "blockNumber",
              "type": "uint256"
            }
          ],
          "internalType": "struct Input",
          "name": "buy",
          "type": "tuple"
        }
      ],
      "name": "testVerify",
      "outputs": [
        {
          "internalType": "bool",
          "name": "",
          "type": "bool"
        }
      ],
      "stateMutability": "view",
      "type": "function"
    },
    {
      "inputs": [
        {
          "components": [
            {
              "components": [
                {
                  "internalType": "address",
                  "name": "trader",
                  "type": "address"
                },
                {
                  "internalType": "enum Side",
                  "name": "side",
                  "type": "uint8"
                },
                {
                  "internalType": "address",
                  "name": "matchingPolicy",
                  "type": "address"
                },
                {
                  "internalType": "address",
                  "name": "collection",
                  "type": "address"
                },
                {
                  "internalType": "uint256",
                  "name": "tokenId",
                  "type": "uint256"
                },
                {
                  "internalType": "uint256",
                  "name": "amount",
                  "type": "uint256"
                },
                {
                  "internalType": "address",
                  "name": "paymentToken",
                  "type": "address"
                },
                {
                  "internalType": "uint256",
                  "name": "price",
                  "type": "uint256"
                },
                {
                  "internalType": "uint256",
                  "name": "listingTime",
                  "type": "uint256"
                },
                {
                  "internalType": "uint256",
                  "name": "expirationTime",
                  "type": "uint256"
                },
                {
                  "components": [
                    {
                      "internalType": "uint16",
                      "name": "rate",
                      "type": "uint16"
                    },
                    {
                      "internalType": "address payable",
                      "name": "recipient",
                      "type": "address"
                    }
                  ],
                  "internalType": "struct Fee[]",
                  "name": "fees",
                  "type": "tuple[]"
                },
                {
                  "internalType": "uint256",
                  "name": "salt",
                  "type": "uint256"
                },
                {
                  "internalType": "bytes",
                  "name": "extraParams",
                  "type": "bytes"
                }
              ],
              "internalType": "struct Order",
              "name": "order",
              "type": "tuple"
            },
            {
              "internalType": "uint8",
              "name": "v",
              "type": "uint8"
            },
            {
              "internalType": "bytes32",
              "name": "r",
              "type": "bytes32"
            },
            {
              "internalType": "bytes32",
              "name": "s",
              "type": "bytes32"
            },
            {
              "internalType": "bytes",
              "name": "extraSignature",
              "type": "bytes"
            },
            {
              "internalType": "enum SignatureVersion",
              "name": "signatureVersion",
              "type": "uint8"
            },
            {
              "internalType": "uint256",
              "name": "blockNumber",
              "type": "uint256"
            }
          ],
          "internalType": "struct Input",
          "name": "input",
          "type": "tuple"
        }
      ],
      "name": "testVerifyOracle",
      "outputs": [
        {
          "internalType": "bool",
          "name": "",
          "type": "bool"
        }
      ],
      "stateMutability": "view",
      "type": "function"
    },
    {
      "inputs": [
        {
          "components": [
            {
              "components": [
                {
                  "internalType": "address",
                  "name": "trader",
                  "type": "address"
                },
                {
                  "internalType": "enum Side",
                  "name": "side",
                  "type": "uint8"
                },
                {
                  "internalType": "address",
                  "name": "matchingPolicy",
                  "type": "address"
                },
                {
                  "internalType": "address",
                  "name": "collection",
                  "type": "address"
                },
                {
                  "internalType": "uint256",
                  "name": "tokenId",
                  "type": "uint256"
                },
                {
                  "internalType": "uint256",
                  "name": "amount",
                  "type": "uint256"
                },
                {
                  "internalType": "address",
                  "name": "paymentToken",
                  "type": "address"
                },
                {
                  "internalType": "uint256",
                  "name": "price",
                  "type": "uint256"
                },
                {
                  "internalType": "uint256",
                  "name": "listingTime",
                  "type": "uint256"
                },
                {
                  "internalType": "uint256",
                  "name": "expirationTime",
                  "type": "uint256"
                },
                {
                  "components": [
                    {
                      "internalType": "uint16",
                      "name": "rate",
                      "type": "uint16"
                    },
                    {
                      "internalType": "address payable",
                      "name": "recipient",
                      "type": "address"
                    }
                  ],
                  "internalType": "struct Fee[]",
                  "name": "fees",
                  "type": "tuple[]"
                },
                {
                  "internalType": "uint256",
                  "name": "salt",
                  "type": "uint256"
                },
                {
                  "internalType": "bytes",
                  "name": "extraParams",
                  "type": "bytes"
                }
              ],
              "internalType": "struct Order",
              "name": "order",
              "type": "tuple"
            },
            {
              "internalType": "uint8",
              "name": "v",
              "type": "uint8"
            },
            {
              "internalType": "bytes32",
              "name": "r",
              "type": "bytes32"
            },
            {
              "internalType": "bytes32",
              "name": "s",
              "type": "bytes32"
            },
            {
              "internalType": "bytes",
              "name": "extraSignature",
              "type": "bytes"
            },
            {
              "internalType": "enum SignatureVersion",
              "name": "signatureVersion",
              "type": "uint8"
            },
            {
              "internalType": "uint256",
              "name": "blockNumber",
              "type": "uint256"
            }
          ],
          "internalType": "struct Input",
          "name": "input",
          "type": "tuple"
        }
      ],
      "name": "testVerifyUser",
      "outputs": [
        {
          "internalType": "bool",
          "name": "",
          "type": "bool"
        }
      ],
      "stateMutability": "view",
      "type": "function"
    },
    {
      "inputs": [
        {
          "internalType": "address",
          "name": "newOwner",
          "type": "address"
        }
      ],
      "name": "transferOwnership",
      "outputs": [],
      "stateMutability": "nonpayable",
      "type": "function"
    },
    {
      "inputs": [
        {
          "internalType": "address",
          "name": "newImplementation",
          "type": "address"
        }
      ],
      "name": "upgradeTo",
      "outputs": [],
      "stateMutability": "nonpayable",
      "type": "function"
    },
    {
      "inputs": [
        {
          "internalType": "address",
          "name": "newImplementation",
          "type": "address"
        },
        {
          "internalType": "bytes",
          "name": "data",
          "type": "bytes"
        }
      ],
      "name": "upgradeToAndCall",
      "outputs": [],
      "stateMutability": "payable",
      "type": "function"
    }
  ],
  "bytecode": "0x60a0604052306080523480156200001557600080fd5b506200002062000026565b620000e8565b605f54610100900460ff1615620000935760405162461bcd60e51b815260206004820152602760248201527f496e697469616c697a61626c653a20636f6e747261637420697320696e697469604482015266616c697a696e6760c81b606482015260840160405180910390fd5b605f5460ff9081161015620000e657605f805460ff191660ff9081179091556040519081527f7f26b83ff96e1f2b6a682f133852f6798a09c465da95921460cefb38474024989060200160405180910390a15b565b6080516152cd6200012060003960008181610934015281816109b901528181610b1301528181610b980152610c8201526152cd6000f3fe6080604052600436106102dc5760003560e01c80637ecebe0011610184578063cae6047f116100d6578063e346e2781161008a578063f973a20911610064578063f973a20914610804578063fcfff16f14610838578063ffa1ad741461084d57600080fd5b8063e346e278146107a4578063f2fde38b146107c4578063f4acd740146107e457600080fd5b8063cf756fdf116100bb578063cf756fdf14610751578063d67f5c1e14610771578063e04d94ae1461079157600080fd5b8063cae6047f14610728578063ccb7ad6f1461073e57600080fd5b8063a4b2c67411610138578063ad5c464811610112578063ad5c4648146106cd578063adde41e1146106f5578063b3be57f81461071557600080fd5b8063a4b2c67414610675578063ab3dbf3b1461068c578063ab7e8cba146106ad57600080fd5b8063986c9b2011610169578063986c9b20146105fc5780639a1fc3a71461061d578063a3f4df7e1461063057600080fd5b80637ecebe00146105b05780638da5cb5b146105de57600080fd5b80634f1ef2861161023d5780636992aa36116101f157806375bc0b8b116101cb57806375bc0b8b1461055c5780637adbf9731461056f5780637dc0d1d01461058f57600080fd5b80636992aa36146104ee578063715018a61461050e5780637535d2461461052357600080fd5b80635511f319116102225780635511f319146104885780636117d1cd146104b9578063627cdcb9146104d957600080fd5b80634f1ef2861461046057806352d1902d1461047357600080fd5b80633659cfe61161029457806343d726d61161027957806343d726d61461040057806347535d7b146104155780634832ede11461042c57600080fd5b80633659cfe6146103c05780634339bc30146103e057600080fd5b80631d97c9bb116102c55780631d97c9bb146103335780632c7acf8c1461037557806331e6d0fe1461038c57600080fd5b8063037c9be2146102e157806316e29d7114610303575b600080fd5b3480156102ed57600080fd5b506103016102fc3660046146a8565b61087c565b005b34801561030f57600080fd5b506101305461031e9060ff1681565b60405190151581526020015b60405180910390f35b34801561033f57600080fd5b506103677fd71080023d2f293ed0723dc287d6b2d4e7d27d0b6c12928e300721b7c78c748581565b60405190815260200161032a565b34801561038157600080fd5b506103676101315481565b34801561039857600080fd5b506103677f5bcf4b2eaff7fcdeb49f0bda53026b9ebdd93db566fe4c447125cb899e598c9081565b3480156103cc57600080fd5b506103016103db3660046146a8565b61092a565b3480156103ec57600080fd5b506103016103fb3660046146a8565b610aa5565b34801561040c57600080fd5b50610301610ad0565b34801561042157600080fd5b506103676101285481565b34801561043857600080fd5b506103677f05b43f730f67de334a342883f867101fc7ef3361dfdff4a29a7aa97e0920ef7a81565b61030161046e36600461471c565b610b09565b34801561047f57600080fd5b50610367610c75565b34801561049457600080fd5b5061031e6104a33660046147c4565b61012e6020526000908152604090205460ff1681565b3480156104c557600080fd5b5061031e6104d43660046147f5565b610d3a565b3480156104e557600080fd5b50610301610f17565b3480156104fa57600080fd5b506103016105093660046147c4565b610f84565b34801561051a57600080fd5b50610301610fc8565b34801561052f57600080fd5b5061012954610544906001600160a01b031681565b6040516001600160a01b03909116815260200161032a565b61030161056a36600461486a565b610fdc565b34801561057b57600080fd5b5061030161058a3660046146a8565b611535565b34801561059b57600080fd5b5061012c54610544906001600160a01b031681565b3480156105bc57600080fd5b506103676105cb3660046146a8565b61012f6020526000908152604090205481565b3480156105ea57600080fd5b506092546001600160a01b0316610544565b34801561060857600080fd5b5061012a54610544906001600160a01b031681565b61030161062b3660046147f5565b6115de565b34801561063c57600080fd5b506106686040518060400160405280600c81526020016b426c757245786368616e676560a01b81525081565b60405161032a919061492e565b34801561068157600080fd5b5061036761012d5481565b34801561069857600080fd5b5061012b54610544906001600160a01b031681565b3480156106b957600080fd5b506103016106c836600461498d565b611696565b3480156106d957600080fd5b5061054473c02aaa39b223fe8d0a0e5c4f27ead9083c756cc281565b34801561070157600080fd5b506103016107103660046146a8565b6116e5565b61030161072336600461498d565b61178e565b34801561073457600080fd5b5061036761271081565b61030161074c36600461486a565b611923565b34801561075d57600080fd5b5061030161076c3660046149cf565b6119c7565b34801561077d57600080fd5b5061031e61078c366004614a20565b611b99565b61030161079f3660046147f5565b6121bf565b3480156107b057600080fd5b5061031e6107bf366004614a20565b61263c565b3480156107d057600080fd5b506103016107df3660046146a8565b6126bc565b3480156107f057600080fd5b506103016107ff366004614a5d565b612749565b34801561081057600080fd5b506103677f376bfbc394a7ba7fdf10f224572cef371358e3053e362f4554fcd2ad56329b3f81565b34801561084457600080fd5b50610301612888565b34801561085957600080fd5b50610668604051806040016040528060038152602001620312e360ec1b81525081565b6108846128c1565b6001600160a01b0381166108df5760405162461bcd60e51b815260206004820152601660248201527f416464726573732063616e6e6f74206265207a65726f0000000000000000000060448201526064015b60405180910390fd5b61012a80546001600160a01b0319166001600160a01b0383169081179091556040517ff9a0f356a7ef079355de09d32ce45cc3cfabc8f118681c19a17501f005a376ac90600090a250565b6001600160a01b037f00000000000000000000000000000000000000000000000000000000000000001630036109b75760405162461bcd60e51b815260206004820152602c60248201527f46756e6374696f6e206d7573742062652063616c6c6564207468726f7567682060448201526b19195b1959d85d1958d85b1b60a21b60648201526084016108d6565b7f00000000000000000000000000000000000000000000000000000000000000006001600160a01b0316610a127f360894a13ba1a3210667c828492db98dca3e2076cc3735a920a3ca505d382bbc546001600160a01b031690565b6001600160a01b031614610a7d5760405162461bcd60e51b815260206004820152602c60248201527f46756e6374696f6e206d7573742062652063616c6c6564207468726f7567682060448201526b6163746976652070726f787960a01b60648201526084016108d6565b610a868161291b565b60408051600080825260208201909252610aa291839190612923565b50565b610aad6128c1565b61012980546001600160a01b0319166001600160a01b0392909216919091179055565b610ad86128c1565b60006101288190556040517f1cdde67b72a90f19919ac732a437ac2f7a10fc128d28c2a6e525d89ce5cd9d3a9190a1565b6001600160a01b037f0000000000000000000000000000000000000000000000000000000000000000163003610b965760405162461bcd60e51b815260206004820152602c60248201527f46756e6374696f6e206d7573742062652063616c6c6564207468726f7567682060448201526b19195b1959d85d1958d85b1b60a21b60648201526084016108d6565b7f00000000000000000000000000000000000000000000000000000000000000006001600160a01b0316610bf17f360894a13ba1a3210667c828492db98dca3e2076cc3735a920a3ca505d382bbc546001600160a01b031690565b6001600160a01b031614610c5c5760405162461bcd60e51b815260206004820152602c60248201527f46756e6374696f6e206d7573742062652063616c6c6564207468726f7567682060448201526b6163746976652070726f787960a01b60648201526084016108d6565b610c658261291b565b610c7182826001612923565b5050565b6000306001600160a01b037f00000000000000000000000000000000000000000000000000000000000000001614610d155760405162461bcd60e51b815260206004820152603860248201527f555550535570677261646561626c653a206d757374206e6f742062652063616c60448201527f6c6564207468726f7567682064656c656761746563616c6c000000000000000060648201526084016108d6565b507f360894a13ba1a3210667c828492db98dca3e2076cc3735a920a3ca505d382bbc90565b600080610d8d610d4a8580614a99565b61012f6000610d598880614a99565b610d679060208101906146a8565b6001600160a01b03166001600160a01b0316815260200190815260200160002054612ac3565b90506000610d9e610d4a8580614a99565b9050610db3610dad8680614a99565b83612c03565b610dff5760405162461bcd60e51b815260206004820152601b60248201527f53656c6c2068617320696e76616c696420706172616d6574657273000000000060448201526064016108d6565b610e12610e0c8580614a99565b82612c03565b610e5e5760405162461bcd60e51b815260206004820152601a60248201527f4275792068617320696e76616c696420706172616d657465727300000000000060448201526064016108d6565b610e688583612c61565b610eb45760405162461bcd60e51b815260206004820152601960248201527f53656c6c206661696c656420617574686f72697a6174696f6e0000000000000060448201526064016108d6565b610ebe8482612c61565b610f0a5760405162461bcd60e51b815260206004820152601860248201527f427579206661696c656420617574686f72697a6174696f6e000000000000000060448201526064016108d6565b6001925050505b92915050565b33600090815261012f60205260408120805460019290610f38908490614ad0565b909155505033600081815261012f60209081526040918290205491519182527fa82a649bbd060c9099cd7b7326e2b0dc9e9af0836480e0f849dc9eaa79710b3b910160405180910390a2565b610f8c6128c1565b61012d8190556040518181527f7706177c541ba1b858371bfc568aa77450b4713bbdbba62c730d4484ab6c12519060200160405180910390a150565b610fd06128c1565b610fda6000612eb0565b565b6101305460ff1661101d5760405162461bcd60e51b815260206004820152600b60248201526a155b9cd859994818d85b1b60aa1b60448201526064016108d6565b60005460ff16156110705760405162461bcd60e51b815260206004820152601360248201527f5265656e7472616e63792064657465637465640000000000000000000000000060448201526064016108d6565b6000805460ff1916600190811790915561108a8480614a99565b61109b906040810190602001614b11565b60018111156110ac576110ac614ae3565b146110f95760405162461bcd60e51b815260206004820152601160248201527f73696465206d7573742062652073656c6c00000000000000000000000000000060448201526064016108d6565b6000611108610d4a8580614a99565b90506000611119610d4a8580614a99565b90508260ff1660010361112d575050611526565b61113a610dad8680614a99565b6111865760405162461bcd60e51b815260206004820152601b60248201527f53656c6c2068617320696e76616c696420706172616d6574657273000000000060448201526064016108d6565b611193610e0c8580614a99565b6111df5760405162461bcd60e51b815260206004820152601a60248201527f4275792068617320696e76616c696420706172616d657465727300000000000060448201526064016108d6565b8260ff166002036111f1575050611526565b6111fb8583612c61565b6112475760405162461bcd60e51b815260206004820152601960248201527f53656c6c206661696c656420617574686f72697a6174696f6e0000000000000060448201526064016108d6565b6112518482612c61565b61129d5760405162461bcd60e51b815260206004820152601860248201527f427579206661696c656420617574686f72697a6174696f6e000000000000000060448201526064016108d6565b8260ff166003036112af575050611526565b60008080806112d06112c18a80614a99565b6112cb8a80614a99565b612f02565b93509350935093508660ff166004036112ee57505050505050611526565b600086815261012e60205260408082208054600160ff199182168117909255888452919092208054909116909117905561138b61132b8a80614a99565b6113399060208101906146a8565b6113438a80614a99565b6113519060208101906146a8565b61135b8c80614a99565b61136c9060e081019060c0016146a8565b6113768d80614a99565b61138590610140810190614b2e565b89613268565b8660ff166005036113a157505050505050611526565b6113f76113ae8a80614a99565b6113bf9060808101906060016146a8565b6113c98b80614a99565b6113d79060208101906146a8565b6113e18b80614a99565b6113ef9060208101906146a8565b868686613360565b8660ff1660060361140d57505050505050611526565b6114178880614a99565b61010001356114268a80614a99565b61010001351161144d5761143a8880614a99565b6114489060208101906146a8565b611465565b6114578980614a99565b6114659060208101906146a8565b6001600160a01b03166114788980614a99565b61010001356114878b80614a99565b610100013511156114af5761149c8980614a99565b6114aa9060208101906146a8565b6114c7565b6114b98a80614a99565b6114c79060208101906146a8565b6001600160a01b03167f61cbb2a3dee0b6064c2e681aadd61677fb4ef319f0b547508d495626f5a62f646114fb8c80614a99565b896115068d80614a99565b8a6040516115179493929190614dde565b60405180910390a35050505050505b50506000805460ff1916905550565b61153d6128c1565b6001600160a01b0381166115935760405162461bcd60e51b815260206004820152601660248201527f416464726573732063616e6e6f74206265207a65726f0000000000000000000060448201526064016108d6565b61012c80546001600160a01b0319166001600160a01b0383169081179091556040517fb3eacd0e351fafdfefdec84e1cd19679b38dbcd63ea7c2c24da17fd2bc3b3c0e90600090a250565b6101285460011461161a5760405162461bcd60e51b815260206004820152600660248201526510db1bdcd95960d21b60448201526064016108d6565b6101305460ff161561165c5760405162461bcd60e51b815260206004820152600b60248201526a155b9cd859994818d85b1b60aa1b60448201526064016108d6565b3461013155610130805460ff1916600117905561167982826121bf565b6116816134c7565b5050600061013155610130805460ff19169055565b60005b60ff81168211156116e0576116ce83838360ff168181106116bc576116bc614e1b565b90506020028101906107ff9190614a99565b806116d881614e31565b915050611699565b505050565b6116ed6128c1565b6001600160a01b0381166117435760405162461bcd60e51b815260206004820152601660248201527f416464726573732063616e6e6f74206265207a65726f0000000000000000000060448201526064016108d6565b61012b80546001600160a01b0319166001600160a01b0383169081179091556040517fdbe18f3fd927cc2aefe380ffd2abfdb8e13f0239c0258ccfc84c3d8fdd8c041890600090a250565b610128546001146117ca5760405162461bcd60e51b815260206004820152600660248201526510db1bdcd95960d21b60448201526064016108d6565b6101305460ff161561180c5760405162461bcd60e51b815260206004820152600b60248201526a155b9cd859994818d85b1b60aa1b60448201526064016108d6565b3461013155610130805460ff191660011790558060008190036118715760405162461bcd60e51b815260206004820152601460248201527f4e6f206f726465727320746f206578656375746500000000000000000000000060448201526064016108d6565b60005b818160ff161015611904576040516020820285013585016000600180850186149081146118b15760018501602002880135880183900391506118b7565b82360391505b507fe04d94ae000000000000000000000000000000000000000000000000000000008352808284600401376000806004830185305af45050505080806118fc90614e31565b915050611874565b5061190d6134c7565b505060006101315550610130805460ff19169055565b6101285460011461195f5760405162461bcd60e51b815260206004820152600660248201526510db1bdcd95960d21b60448201526064016108d6565b6101305460ff16156119a15760405162461bcd60e51b815260206004820152600b60248201526a155b9cd859994818d85b1b60aa1b60448201526064016108d6565b3461013155610130805460ff191660011790556119bf838383610fdc565b61190d6134c7565b605f54610100900460ff16158080156119e75750605f54600160ff909116105b80611a015750303b158015611a015750605f5460ff166001145b611a735760405162461bcd60e51b815260206004820152602e60248201527f496e697469616c697a61626c653a20636f6e747261637420697320616c72656160448201527f647920696e697469616c697a656400000000000000000000000000000000000060648201526084016108d6565b605f805460ff191660011790558015611a9657605f805461ff0019166101001790555b611a9e6134e5565b6001610128556040805160c081018252600c608082019081526b426c757245786368616e676560a01b60a083015281528151808301835260038152620312e360ec1b6020828101919091528201524691810191909152306060820152611b0390613558565b60325561012a80546001600160a01b038088166001600160a01b03199283161790925561012b805487841690831617905561012c80549286169290911691909117905561012d8290558015611b9257605f805461ff0019169055604051600181527f7f26b83ff96e1f2b6a682f133852f6798a09c465da95921460cefb38474024989060200160405180910390a15b5050505050565b600036611ba68380614a99565b9050611bf96040518060400160405280600c81526020017f6f726465722e7472616465720000000000000000000000000000000000000000815250826000016020810190611bf491906146a8565b6135f5565b604080518082018252601481527f6f726465722e6d61746368696e67506f6c6963790000000000000000000000006020820152611c4091611bf490606085019085016146a8565b60408051808201909152601081527f6f726465722e636f6c6c656374696f6e000000000000000000000000000000006020820152611c8890611bf460808401606085016146a8565b611ccb6040518060400160405280600d81526020017f6f726465722e746f6b656e4964000000000000000000000000000000000000008152508260800135613653565b611d0e6040518060400160405280600c81526020017f6f726465722e616d6f756e7400000000000000000000000000000000000000008152508260a00135613653565b60408051808201909152601281527f6f726465722e7061796d656e74546f6b656e00000000000000000000000000006020820152611d5690611bf460e0840160c085016146a8565b611d996040518060400160405280600b81526020017f6f726465722e70726963650000000000000000000000000000000000000000008152508260e00135613653565b611ddd6040518060400160405280601181526020017f6f726465722e6c697374696e6754696d65000000000000000000000000000000815250826101000135613653565b611e216040518060400160405280601481526020017f6f726465722e65787069726174696f6e54696d65000000000000000000000000815250826101200135613653565b611e606040518060400160405280600a81526020017f6f726465722e73616c740000000000000000000000000000000000000000000081525046613653565b60007f376bfbc394a7ba7fdf10f224572cef371358e3053e362f4554fcd2ad56329b3f611e9060208401846146a8565b611ea06040850160208601614b11565b611eb060608601604087016146a8565b611ec060808701606088016146a8565b608087013560a0880135611eda60e08a0160c08b016146a8565b60e08a01356101008b01356101208c0135611f01611efc6101408f018f614b2e565b6136b1565b8d61016001358e806101800190611f189190614e50565b604051611f26929190614e97565b604051908190038120611f489e9d9c9b9a999897969594939291602001614ea7565b60408051601f19818403018152828252600060208401819052909350910160408051601f19818403018152828201909152600b82527f6f7264657262797465733a00000000000000000000000000000000000000000060208301529150611fae90613784565b611fb7826137e0565b611ff56040518060400160405280600b81526020017f6e6f6e636562797465733a000000000000000000000000000000000000000000815250613784565b611ffe816137e0565b600061201c61200d8780614a99565b61012f6000610d598a80614a99565b9050600061202a8780614a99565b61203990610180810190614e50565b90501180156120a0575061204d8680614a99565b61205c90610180810190614e50565b600081811061206d5761206d614e1b565b9050013560f81c60f81b7effffffffffffffffffffffffffffffffffffffffffffffffffffffffffffff1916600160f81b145b156121b3576121196040518060400160405280601081526020017f746573745665726966794f7261636c65000000000000000000000000000000008152506040518060400160405280600a81526020017f737461727420746573740000000000000000000000000000000000000000000081525061383c565b61012d5461212b60c088013543614f47565b106121785760405162461bcd60e51b815260206004820181905260248201527f5369676e656420626c6f636b206e756d626572206f7574206f662072616e676560448201526064016108d6565b6121a38161218c60c0890160a08a01614b11565b61219960808a018a614e50565b8a60c0013561389a565b6121b35750600095945050505050565b50600195945050505050565b6101305460ff166122005760405162461bcd60e51b815260206004820152600b60248201526a155b9cd859994818d85b1b60aa1b60448201526064016108d6565b60005460ff16156122535760405162461bcd60e51b815260206004820152601360248201527f5265656e7472616e63792064657465637465640000000000000000000000000060448201526064016108d6565b6000805460ff1916600190811790915561226d8380614a99565b61227e906040810190602001614b11565b600181111561228f5761228f614ae3565b1461229957600080fd5b60006122b76122a88480614a99565b61012f6000610d598780614a99565b905060006122c86122a88480614a99565b90506122d7610dad8580614a99565b6123235760405162461bcd60e51b815260206004820152601b60248201527f53656c6c2068617320696e76616c696420706172616d6574657273000000000060448201526064016108d6565b612330610e0c8480614a99565b61237c5760405162461bcd60e51b815260206004820152601a60248201527f4275792068617320696e76616c696420706172616d657465727300000000000060448201526064016108d6565b6123868483612c61565b6123d25760405162461bcd60e51b815260206004820152601960248201527f53656c6c206661696c656420617574686f72697a6174696f6e0000000000000060448201526064016108d6565b6123dc8382612c61565b6124285760405162461bcd60e51b815260206004820152601860248201527f427579206661696c656420617574686f72697a6174696f6e000000000000000060448201526064016108d6565b600080808061244461243a8980614a99565b6112cb8980614a99565b60008a815261012e60205260408082208054600160ff1991821681179092558c84529190922080549091169091179055929650909450925090506124d661248b8980614a99565b6124999060208101906146a8565b6124a38980614a99565b6124b19060208101906146a8565b6124bb8b80614a99565b6124cc9060e081019060c0016146a8565b6113768c80614a99565b6125166124e38980614a99565b6124f49060808101906060016146a8565b6124fe8a80614a99565b61250c9060208101906146a8565b6113e18a80614a99565b6125208780614a99565b610100013561252f8980614a99565b610100013511612556576125438780614a99565b6125519060208101906146a8565b61256e565b6125608880614a99565b61256e9060208101906146a8565b6001600160a01b03166125818880614a99565b61010001356125908a80614a99565b610100013511156125b8576125a58880614a99565b6125b39060208101906146a8565b6125d0565b6125c28980614a99565b6125d09060208101906146a8565b6001600160a01b03167f61cbb2a3dee0b6064c2e681aadd61677fb4ef319f0b547508d495626f5a62f646126048b80614a99565b8961260f8c80614a99565b8a6040516126209493929190614dde565b60405180910390a350506000805460ff19169055505050505050565b60008061264c6122a88480614a99565b90506126a68161265c8580614a99565b61266a9060208101906146a8565b61267a6040870160208801614f5a565b6040870135606088013561269460c08a0160a08b01614b11565b6126a160808b018b614e50565b613a9e565b6126b35750600092915050565b50600192915050565b6126c46128c1565b6001600160a01b0381166127405760405162461bcd60e51b815260206004820152602660248201527f4f776e61626c653a206e6577206f776e657220697320746865207a65726f206160448201527f646472657373000000000000000000000000000000000000000000000000000060648201526084016108d6565b610aa281612eb0565b61275660208201826146a8565b6001600160a01b0316336001600160a01b0316146127b65760405162461bcd60e51b815260206004820152601260248201527f4e6f742073656e7420627920747261646572000000000000000000000000000060448201526064016108d6565b60006127cd8261012f83610d6760208401846146a8565b600081815261012e602052604090205490915060ff16156128305760405162461bcd60e51b815260206004820152601960248201527f4f726465722063616e63656c6c6564206f722066696c6c65640000000000000060448201526064016108d6565b600081815261012e602052604090819020805460ff19166001179055517f5152abf959f6564662358c2e52b702259b78bac5ee7842a0f01937e670efcc7d9061287c9083815260200190565b60405180910390a15050565b6128906128c1565b6001610128556040517fd1dcd00534373f20882b79e6ab6875a5c358c5bd576448757ed50e63069ab51890600090a1565b6092546001600160a01b03163314610fda5760405162461bcd60e51b815260206004820181905260248201527f4f776e61626c653a2063616c6c6572206973206e6f7420746865206f776e657260448201526064016108d6565b610aa26128c1565b7f4910fdfa16fed3260ed0e7147f7cc6da11a60208b5b9406d12a635614ffd91435460ff1615612956576116e083613b99565b826001600160a01b03166352d1902d6040518163ffffffff1660e01b8152600401602060405180830381865afa9250505080156129b0575060408051601f3d908101601f191682019092526129ad91810190614f75565b60015b612a225760405162461bcd60e51b815260206004820152602e60248201527f45524331393637557067726164653a206e657720696d706c656d656e7461746960448201527f6f6e206973206e6f74205555505300000000000000000000000000000000000060648201526084016108d6565b7f360894a13ba1a3210667c828492db98dca3e2076cc3735a920a3ca505d382bbc8114612ab75760405162461bcd60e51b815260206004820152602960248201527f45524331393637557067726164653a20756e737570706f727465642070726f7860448201527f6961626c6555554944000000000000000000000000000000000000000000000060648201526084016108d6565b506116e0838383613c57565b60007f376bfbc394a7ba7fdf10f224572cef371358e3053e362f4554fcd2ad56329b3f612af360208501856146a8565b612b036040860160208701614b11565b612b1360608701604088016146a8565b612b2360808801606089016146a8565b608088013560a0890135612b3d60e08b0160c08c016146a8565b8a60e001358b61010001358c6101200135612b678e806101400190612b629190614b2e565b613c82565b8e61016001358f806101800190612b7e9190614e50565b604051612b8c929190614e97565b604051908190038120612bae9e9d9c9b9a999897969594939291602001614ea7565b60408051601f1981840301815282825260208301859052910160408051601f1981840301815290829052612be59291602001614f8e565b60405160208183030381529060405280519060200120905092915050565b600080612c1360208501856146a8565b6001600160a01b031614158015612c3a5750600082815261012e602052604090205460ff16155b8015612c4a575042836101000135105b8015612c5a575082610120013542105b9392505050565b600080612c6e8480614a99565b612c7d90610180810190614e50565b9050118015612ce45750612c918380614a99565b612ca090610180810190614e50565b6000818110612cb157612cb1614e1b565b9050013560f81c60f81b7effffffffffffffffffffffffffffffffffffffffffffffffffffffffffffff1916600160f81b145b15612df357612d5d6040518060400160405280601981526020017f76616c6964617465206f7261636c65207369676e6174757265000000000000008152506040518060400160405280600c81526020017f656e746572206f7261636c65000000000000000000000000000000000000000081525061383c565b61012d54612d6f60c085013543614f47565b10612dbc5760405162461bcd60e51b815260206004820181905260248201527f5369676e656420626c6f636b206e756d626572206f7574206f662072616e676560448201526064016108d6565b612de782612dd060c0860160a08701614b11565b612ddd6080870187614e50565b8760c0013561389a565b612df357506000610f11565b612e676040518060400160405280601981526020017f76616c6964617465206f7261636c65207369676e6174757265000000000000008152506040518060400160405280601081526020017f6e6f7420656e746572206f7261636c650000000000000000000000000000000081525061383c565b33612e728480614a99565b612e809060208101906146a8565b6001600160a01b031603612e9657506001610f11565b612ea48261265c8580614a99565b6126b357506000610f11565b609280546001600160a01b038381166001600160a01b0319831681179093556040519116919082907f8be0079c531659141344cd1fd0a4f28419497f9722a3daafe3b4186f6b6457e090600090a35050565b6000806000806000856101000135876101000135116130985761012b546001600160a01b031663874516cd612f3d60608a0160408b016146a8565b6040517fffffffff0000000000000000000000000000000000000000000000000000000060e084901b1681526001600160a01b039091166004820152602401602060405180830381865afa158015612f99573d6000803e3d6000fd5b505050506040513d601f19601f82011682018060405250810190612fbd9190614fcd565b6130095760405162461bcd60e51b815260206004820152601960248201527f506f6c696379206973206e6f742077686974656c69737465640000000000000060448201526064016108d6565b61301960608801604089016146a8565b6001600160a01b031663d5ec8c7788886040518363ffffffff1660e01b8152600401613046929190614fe8565b60a060405180830381865afa158015613063573d6000803e3d6000fd5b505050506040513d601f19601f82011682018060405250810190613087919061500d565b929850909650945092509050613211565b61012b546001600160a01b031663874516cd6130ba6060890160408a016146a8565b6040517fffffffff0000000000000000000000000000000000000000000000000000000060e084901b1681526001600160a01b039091166004820152602401602060405180830381865afa158015613116573d6000803e3d6000fd5b505050506040513d601f19601f8201168201806040525081019061313a9190614fcd565b6131865760405162461bcd60e51b815260206004820152601960248201527f506f6c696379206973206e6f742077686974656c69737465640000000000000060448201526064016108d6565b61319660608701604088016146a8565b6001600160a01b0316630813a76687896040518363ffffffff1660e01b81526004016131c3929190614fe8565b60a060405180830381865afa1580156131e0573d6000803e3d6000fd5b505050506040513d601f19601f82011682018060405250810190613204919061500d565b9298509096509450925090505b8061325e5760405162461bcd60e51b815260206004820152601860248201527f4f72646572732063616e6e6f74206265206d617463686564000000000000000060448201526064016108d6565b5092959194509250565b6001600160a01b03841661333a57336001600160a01b038616146132ce5760405162461bcd60e51b815260206004820152600e60248201527f43616e6e6f74207573652045544800000000000000000000000000000000000060448201526064016108d6565b806101315410156133215760405162461bcd60e51b815260206004820152601260248201527f496e73756666696369656e742076616c7565000000000000000000000000000060448201526064016108d6565b8061013160008282546133349190614f47565b90915550505b60006133498484878986613d19565b905061335785878984613e34565b50505050505050565b600081600181111561337457613374614ae3565b0361340e5761012a546040517f789f93f60000000000000000000000000000000000000000000000000000000081526001600160a01b03888116600483015287811660248301528681166044830152606482018690529091169063789f93f690608401600060405180830381600087803b1580156133f157600080fd5b505af1158015613405573d6000803e3d6000fd5b505050506134bf565b600181600181111561342257613422614ae3565b036134bf5761012a546040517f74a9402e0000000000000000000000000000000000000000000000000000000081526001600160a01b038881166004830152878116602483015286811660448301526064820186905260848201859052909116906374a9402e9060a401600060405180830381600087803b1580156134a657600080fd5b505af11580156134ba573d6000803e3d6000fd5b505050505b505050505050565b610131548015610aa25760008060008084335af180610c7157600080fd5b605f54610100900460ff166135505760405162461bcd60e51b815260206004820152602b60248201527f496e697469616c697a61626c653a20636f6e7472616374206973206e6f74206960448201526a6e697469616c697a696e6760a81b60648201526084016108d6565b610fda614166565b60007f8b73c3c69bb8fe3d512ecc4cf759cc79239f7b179b0ffacaa9a75d522b39400f826000015180519060200120836020015180519060200120846040015185606001516040516020016135d89594939291909485526020850193909352604084019190915260608301526001600160a01b0316608082015260a00190565b604051602081830303815290604052805190602001209050919050565b610c71828260405160240161360b929190615061565b60408051601f198184030181529190526020810180516001600160e01b03167f319af333000000000000000000000000000000000000000000000000000000001790526141da565b610c71828260405160240161366992919061508c565b60408051601f198184030181529190526020810180516001600160e01b03167fb60e72cc000000000000000000000000000000000000000000000000000000001790526141da565b6000808267ffffffffffffffff8111156136cd576136cd6146d5565b6040519080825280602002602001820160405280156136f6578160200160208202803683370190505b50905060005b838110156137535761372485858381811061371957613719614e1b565b9050604002016141fb565b82828151811061373657613736614e1b565b60209081029190910101528061374b816150ae565b9150506136fc565b508060405160200161376591906150c7565b6040516020818303038152906040528051906020012091505092915050565b610aa281604051602401613798919061492e565b60408051601f198184030181529190526020810180516001600160e01b03167f41304fac000000000000000000000000000000000000000000000000000000001790526141da565b610aa2816040516024016137f4919061492e565b60408051601f198184030181529190526020810180516001600160e01b03167f0be77f56000000000000000000000000000000000000000000000000000000001790526141da565b610c7182826040516024016138529291906150fd565b60408051601f198184030181529190526020810180516001600160e01b03167f4b5c4277000000000000000000000000000000000000000000000000000000001790526141da565b6000806138a7878461426b565b90506138e76040518060400160405280600a81526020017f6f7261636c654861736800000000000000000000000000000000000000000000815250613784565b6138f0816142e9565b61392e6040518060400160405280600981526020017f6f72646572486173680000000000000000000000000000000000000000000000815250613784565b613937876142e9565b600080808089600181111561394e5761394e614ae3565b03613a48578735925060208801359150604088013590506139a76040518060400160405280601081526020017f65787472615369676e61747572652076000000000000000000000000000000008152508460ff16613653565b6139b0826142e9565b6139b9816142e9565b6139f888888080601f0160208091040260200160405190810160405280939291908181526020018383808284376000920191909152506137e092505050565b60408051808201909152600e81527f6f7261636c652061646472657373000000000000000000000000000000000000602082015261012c54613a4391906001600160a01b03166135f5565b613a74565b6001896001811115613a5c57613a5c614ae3565b03613a74575050506020850135604086013560608701355b61012c54613a8e906001600160a01b031685858585614347565b9450505050505b95945050505050565b60008080856001811115613ab457613ab4614ae3565b03613ac957613ac28a614476565b9050613b7e565b6001856001811115613add57613add614ae3565b03613b7e576000613af084860186615122565b9050600073__$82635e7900a17ae2732d334128a764b403$__639c7bf9388d846040518363ffffffff1660e01b8152600401613b2d9291906151bc565b602060405180830381865af4158015613b4a573d6000803e3d6000fd5b505050506040513d601f19601f82011682018060405250810190613b6e9190614f75565b9050613b79816144a1565b925050505b613b8b89828a8a8a614347565b9a9950505050505050505050565b6001600160a01b0381163b613c165760405162461bcd60e51b815260206004820152602d60248201527f455243313936373a206e657720696d706c656d656e746174696f6e206973206e60448201527f6f74206120636f6e74726163740000000000000000000000000000000000000060648201526084016108d6565b7f360894a13ba1a3210667c828492db98dca3e2076cc3735a920a3ca505d382bbc80546001600160a01b0319166001600160a01b0392909216919091179055565b613c6083614518565b600082511180613c6d5750805b156116e057613c7c8383614558565b50505050565b6000808267ffffffffffffffff811115613c9e57613c9e6146d5565b604051908082528060200260200182016040528015613cc7578160200160208202803683370190505b50905060005b8381101561375357613cea85858381811061371957613719614e1b565b828281518110613cfc57613cfc614e1b565b602090810291909101015280613d11816150ae565b915050613ccd565b600080805b60ff8116871115613dcb57600061271089898460ff16818110613d4357613d43614e1b565b613d59926020604090920201908101915061520a565b613d679061ffff1687615225565b613d71919061523c565b9050613dab87878b8b8660ff16818110613d8d57613d8d614e1b565b9050604002016020016020810190613da591906146a8565b84613e34565b613db58184614ad0565b9250508080613dc390614e31565b915050613d1e565b5082811115613e1c5760405162461bcd60e51b815260206004820152601c60248201527f4665657320617265206d6f7265207468616e207468652070726963650000000060448201526064016108d6565b6000613e288285614f47565b98975050505050505050565b8015613c7c576001600160a01b038416613f47576001600160a01b038216613e9e5760405162461bcd60e51b815260206004820152601860248201527f5472616e7366657220746f207a65726f2061646472657373000000000000000060448201526064016108d6565b6000826001600160a01b03168260405160006040518083038185875af1925050503d8060008114613eeb576040519150601f19603f3d011682016040523d82523d6000602084013e613ef0565b606091505b5050905080613f415760405162461bcd60e51b815260206004820152601360248201527f455448207472616e73666572206661696c65640000000000000000000000000060448201526064016108d6565b50613c7c565b610129546001600160a01b039081169085160361404757610129546040517f23b872dd0000000000000000000000000000000000000000000000000000000081526001600160a01b03858116600483015284811660248301526044820184905260009216906323b872dd906064016020604051808303816000875af1158015613fd4573d6000803e3d6000fd5b505050506040513d601f19601f82011682018060405250810190613ff89190614fcd565b905080613f415760405162461bcd60e51b815260206004820152601460248201527f506f6f6c207472616e73666572206661696c656400000000000000000000000060448201526064016108d6565b7fffffffffffffffffffffffff3fd555c64ddc0172f5f1a3b0d81526f7c38a933e6001600160a01b0385160161411e5761012a546040517fda3e8ce400000000000000000000000000000000000000000000000000000000815273c02aaa39b223fe8d0a0e5c4f27ead9083c756cc260048201526001600160a01b0385811660248301528481166044830152606482018490529091169063da3e8ce490608401600060405180830381600087803b15801561410157600080fd5b505af1158015614115573d6000803e3d6000fd5b50505050613c7c565b60405162461bcd60e51b815260206004820152601560248201527f496e76616c6964207061796d656e7420746f6b656e000000000000000000000060448201526064016108d6565b605f54610100900460ff166141d15760405162461bcd60e51b815260206004820152602b60248201527f496e697469616c697a61626c653a20636f6e7472616374206973206e6f74206960448201526a6e697469616c697a696e6760a81b60648201526084016108d6565b610fda33612eb0565b80516a636f6e736f6c652e6c6f67602083016000808483855afa5050505050565b60007f05b43f730f67de334a342883f867101fc7ef3361dfdff4a29a7aa97e0920ef7a61422b602084018461520a565b61423b60408501602086016146a8565b6040516020016135d89392919092835261ffff9190911660208301526001600160a01b0316604082015260600190565b603254604080517fd71080023d2f293ed0723dc287d6b2d4e7d27d0b6c12928e300721b7c78c74856020820152908101849052606081018390526000919060800160405160208183030381529060405280519060200120604051602001612be592919061190160f01b81526002810192909252602282015260420190565b610aa2816040516024016142ff91815260200190565b60408051601f198184030181529190526020810180516001600160e01b03167f27b7cf85000000000000000000000000000000000000000000000000000000001790526141da565b60008360ff16601b148061435e57508360ff16601c145b6143aa5760405162461bcd60e51b815260206004820152601360248201527f496e76616c6964207620706172616d657465720000000000000000000000000060448201526064016108d6565b6040805160008082526020820180845288905260ff871692820192909252606081018590526080810184905260019060a0016020604051602081039080840390855afa1580156143fe573d6000803e3d6000fd5b5050506020604051035190506144496040518060400160405280600f81526020017f7265636f76657265645369676e65720000000000000000000000000000000000815250826135f5565b6001600160a01b038116614461576000915050613a95565b6001600160a01b038781169116149050613a95565b60325460405161190160f01b60208201526022810191909152604281018290526000906062016135d8565b603254604080517f5bcf4b2eaff7fcdeb49f0bda53026b9ebdd93db566fe4c447125cb899e598c90602082015290810183905260009190606001604051602081830303815290604052805190602001206040516020016135d892919061190160f01b81526002810192909252602282015260420190565b61452181613b99565b6040516001600160a01b038216907fbc7cd75a20ee27fd9adebab32041f755214dbc6bffa90cc0225b39da2e5c2d3b90600090a250565b60606001600160a01b0383163b6145d75760405162461bcd60e51b815260206004820152602660248201527f416464726573733a2064656c65676174652063616c6c20746f206e6f6e2d636f60448201527f6e7472616374000000000000000000000000000000000000000000000000000060648201526084016108d6565b600080846001600160a01b0316846040516145f2919061525e565b600060405180830381855af49150503d806000811461462d576040519150601f19603f3d011682016040523d82523d6000602084013e614632565b606091505b5091509150613a9582826040518060600160405280602781526020016152716027913960608315614664575081612c5a565b612c5a83838151156146795781518083602001fd5b8060405162461bcd60e51b81526004016108d6919061492e565b6001600160a01b0381168114610aa257600080fd5b6000602082840312156146ba57600080fd5b8135612c5a81614693565b80356146d081614693565b919050565b634e487b7160e01b600052604160045260246000fd5b604051601f8201601f1916810167ffffffffffffffff81118282101715614714576147146146d5565b604052919050565b6000806040838503121561472f57600080fd5b823561473a81614693565b915060208381013567ffffffffffffffff8082111561475857600080fd5b818601915086601f83011261476c57600080fd5b81358181111561477e5761477e6146d5565b614790601f8201601f191685016146eb565b915080825287848285010111156147a657600080fd5b80848401858401376000848284010152508093505050509250929050565b6000602082840312156147d657600080fd5b5035919050565b600060e082840312156147ef57600080fd5b50919050565b6000806040838503121561480857600080fd5b823567ffffffffffffffff8082111561482057600080fd5b61482c868387016147dd565b9350602085013591508082111561484257600080fd5b5061484f858286016147dd565b9150509250929050565b803560ff811681146146d057600080fd5b60008060006060848603121561487f57600080fd5b833567ffffffffffffffff8082111561489757600080fd5b6148a3878388016147dd565b945060208601359150808211156148b957600080fd5b506148c6868287016147dd565b9250506148d560408501614859565b90509250925092565b60005b838110156148f95781810151838201526020016148e1565b50506000910152565b6000815180845261491a8160208601602086016148de565b601f01601f19169290920160200192915050565b602081526000612c5a6020830184614902565b60008083601f84011261495357600080fd5b50813567ffffffffffffffff81111561496b57600080fd5b6020830191508360208260051b850101111561498657600080fd5b9250929050565b600080602083850312156149a057600080fd5b823567ffffffffffffffff8111156149b757600080fd5b6149c385828601614941565b90969095509350505050565b600080600080608085870312156149e557600080fd5b84356149f081614693565b93506020850135614a0081614693565b92506040850135614a1081614693565b9396929550929360600135925050565b600060208284031215614a3257600080fd5b813567ffffffffffffffff811115614a4957600080fd5b614a55848285016147dd565b949350505050565b600060208284031215614a6f57600080fd5b813567ffffffffffffffff811115614a8657600080fd5b82016101a08185031215612c5a57600080fd5b6000823561019e19833603018112614ab057600080fd5b9190910192915050565b634e487b7160e01b600052601160045260246000fd5b80820180821115610f1157610f11614aba565b634e487b7160e01b600052602160045260246000fd5b60028110610aa257600080fd5b80356146d081614af9565b600060208284031215614b2357600080fd5b8135612c5a81614af9565b6000808335601e19843603018112614b4557600080fd5b83018035915067ffffffffffffffff821115614b6057600080fd5b6020019150600681901b360382131561498657600080fd5b60028110614b9657634e487b7160e01b600052602160045260246000fd5b9052565b6000808335601e19843603018112614bb157600080fd5b830160208101925035905067ffffffffffffffff811115614bd157600080fd5b8060061b360382131561498657600080fd5b803561ffff811681146146d057600080fd5b8183526000602080850194508260005b85811015614c495761ffff614c1983614be3565b16875282820135614c2981614693565b6001600160a01b0316878401526040968701969190910190600101614c05565b509495945050505050565b6000808335601e19843603018112614c6b57600080fd5b830160208101925035905067ffffffffffffffff811115614c8b57600080fd5b80360382131561498657600080fd5b81835281816020850137506000828201602090810191909152601f909101601f19169091010190565b60006101a0614ce284614cd5856146c5565b6001600160a01b03169052565b614cee60208401614b06565b614cfb6020860182614b78565b50614d08604084016146c5565b6001600160a01b03166040850152614d22606084016146c5565b6001600160a01b0381166060860152506080830135608085015260a083013560a0850152614d5260c084016146c5565b6001600160a01b031660c085015260e0838101359085015261010080840135908501526101208084013590850152610140614d8f81850185614b9a565b8383880152614da18488018284614bf5565b9350505050610160808401358186015250610180614dc181850185614c54565b86840383880152614dd3848284614c9a565b979650505050505050565b608081526000614df16080830187614cc3565b8560208401528281036040840152614e098186614cc3565b91505082606083015295945050505050565b634e487b7160e01b600052603260045260246000fd5b600060ff821660ff8103614e4757614e47614aba565b60010192915050565b6000808335601e19843603018112614e6757600080fd5b83018035915067ffffffffffffffff821115614e8257600080fd5b60200191503681900382131561498657600080fd5b8183823760009101908152919050565b8e81526001600160a01b038e1660208201526101c08101614ecb604083018f614b78565b6001600160a01b038d1660608301526001600160a01b038c1660808301528a60a08301528960c0830152614f0a60e083018a6001600160a01b03169052565b8761010083015286610120830152856101408301528461016083015283610180830152826101a08301529f9e505050505050505050505050505050565b81810381811115610f1157610f11614aba565b600060208284031215614f6c57600080fd5b612c5a82614859565b600060208284031215614f8757600080fd5b5051919050565b60008351614fa08184602088016148de565b835190830190614fb48183602088016148de565b01949350505050565b805180151581146146d057600080fd5b600060208284031215614fdf57600080fd5b612c5a82614fbd565b604081526000614ffb6040830185614cc3565b8281036020840152613a958185614cc3565b600080600080600060a0868803121561502557600080fd5b61502e86614fbd565b9450602086015193506040860151925060608601519150608086015161505381614af9565b809150509295509295909350565b6040815260006150746040830185614902565b90506001600160a01b03831660208301529392505050565b60408152600061509f6040830185614902565b90508260208301529392505050565b6000600182016150c0576150c0614aba565b5060010190565b815160009082906020808601845b838110156150f1578151855293820193908201906001016150d5565b50929695505050505050565b6040815260006151106040830185614902565b8281036020840152613a958185614902565b6000602080838503121561513557600080fd5b823567ffffffffffffffff8082111561514d57600080fd5b818501915085601f83011261516157600080fd5b813581811115615173576151736146d5565b8060051b91506151848483016146eb565b818152918301840191848101908884111561519e57600080fd5b938501935b83851015613e28578435825293850193908501906151a3565b6000604082018483526020604081850152818551808452606086019150828701935060005b818110156151fd578451835293830193918301916001016151e1565b5090979650505050505050565b60006020828403121561521c57600080fd5b612c5a82614be3565b8082028115828204841417610f1157610f11614aba565b60008261525957634e487b7160e01b600052601260045260246000fd5b500490565b60008251614ab08184602087016148de56fe416464726573733a206c6f772d6c6576656c2064656c65676174652063616c6c206661696c6564a2646970667358221220546084ee891d9cb002ab61991065af09a4b302b0d4cebbbc2b769b63174c67fa64736f6c63430008110033",
  "linkReferences": {
    "contracts/lib/MerkleVerifier.sol": {
      "MerkleVerifier": [
        {
          "length": 20,
          "start": 15382
        }
      ]
    }
  },
  "deployedLinkReferences": {
    "contracts/lib/MerkleVerifier.sol": {
      "MerkleVerifier": [
        {
          "length": 20,
          "start": 15094
        }
      ]
    }
  }
}