{
  "_format": "hh-sol-artifact-1",
  "contractName": "MarketRegistry",
  "sourceName": "contracts/swap/markets/MarketRegistry.sol",
  "abi": [
    {
      "inputs": [
        {
          "internalType": "address[]",
          "name": "proxies",
          "type": "address[]"
        },
        {
          "internalType": "bool[]",
          "name": "isLibs",
          "type": "bool[]"
        }
      ],
      "stateMutability": "nonpayable",
      "type": "constructor"
    },
    {
      "anonymous": false,
      "inputs": [
        {
          "indexed": true,
          "internalType": "address",
          "name": "previousOwner",
          "type": "address"
        },
        {
          "indexed": true,
          "internalType": "address",
          "name": "newOwner",
          "type": "address"
        }
      ],
      "name": "OwnershipTransferred",
      "type": "event"
    },
    {
      "inputs": [
        {
          "internalType": "address",
          "name": "proxy",
          "type": "address"
        },
        {
          "internalType": "bool",
          "name": "isLib",
          "type": "bool"
        }
      ],
      "name": "addMarket",
      "outputs": [],
      "stateMutability": "nonpayable",
      "type": "function"
    },
    {
      "inputs": [
        {
          "internalType": "uint256",
          "name": "",
          "type": "uint256"
        }
      ],
      "name": "markets",
      "outputs": [
        {
          "internalType": "address",
          "name": "proxy",
          "type": "address"
        },
        {
          "internalType": "bool",
          "name": "isLib",
          "type": "bool"
        },
        {
          "internalType": "bool",
          "name": "isActive",
          "type": "bool"
        }
      ],
      "stateMutability": "view",
      "type": "function"
    },
    {
      "inputs": [],
      "name": "owner",
      "outputs": [
        {
          "internalType": "address",
          "name": "",
          "type": "address"
        }
      ],
      "stateMutability": "view",
      "type": "function"
    },
    {
      "inputs": [],
      "name": "renounceOwnership",
      "outputs": [],
      "stateMutability": "nonpayable",
      "type": "function"
    },
    {
      "inputs": [
        {
          "internalType": "uint256",
          "name": "marketId",
          "type": "uint256"
        },
        {
          "internalType": "address",
          "name": "newProxy",
          "type": "address"
        },
        {
          "internalType": "bool",
          "name": "isLib",
          "type": "bool"
        }
      ],
      "name": "setMarketProxy",
      "outputs": [],
      "stateMutability": "nonpayable",
      "type": "function"
    },
    {
      "inputs": [
        {
          "internalType": "uint256",
          "name": "marketId",
          "type": "uint256"
        },
        {
          "internalType": "bool",
          "name": "newStatus",
          "type": "bool"
        }
      ],
      "name": "setMarketStatus",
      "outputs": [],
      "stateMutability": "nonpayable",
      "type": "function"
    },
    {
      "inputs": [
        {
          "internalType": "address",
          "name": "newOwner",
          "type": "address"
        }
      ],
      "name": "transferOwnership",
      "outputs": [],
      "stateMutability": "nonpayable",
      "type": "function"
    }
  ],
  "bytecode": "0x60806040523480156200001157600080fd5b5060405162000a7238038062000a7283398101604081905262000034916200026e565b6200003f336200012c565b60005b82518110156200012357600160405180606001604052808584815181106200006e576200006e6200034c565b60200260200101516001600160a01b031681526020018484815181106200009957620000996200034c565b60209081029190910181015115158252600191810182905283549182018455600093845292839020825191018054938301516040909301511515600160a81b0260ff60a81b19931515600160a01b026001600160a81b03199095166001600160a01b03909316929092179390931791909116179055806200011a8162000362565b91505062000042565b5050506200038a565b600080546001600160a01b038381166001600160a01b0319831681178455604051919092169283917f8be0079c531659141344cd1fd0a4f28419497f9722a3daafe3b4186f6b6457e09190a35050565b634e487b7160e01b600052604160045260246000fd5b604051601f8201601f191681016001600160401b0381118282101715620001bd57620001bd6200017c565b604052919050565b60006001600160401b03821115620001e157620001e16200017c565b5060051b60200190565b600082601f830112620001fd57600080fd5b81516020620002166200021083620001c5565b62000192565b82815260059290921b840181019181810190868411156200023657600080fd5b8286015b84811015620002635780518015158114620002555760008081fd5b83529183019183016200023a565b509695505050505050565b600080604083850312156200028257600080fd5b82516001600160401b03808211156200029a57600080fd5b818501915085601f830112620002af57600080fd5b81516020620002c26200021083620001c5565b82815260059290921b84018101918181019089841115620002e257600080fd5b948201945b83861015620003195785516001600160a01b0381168114620003095760008081fd5b82529482019490820190620002e7565b918801519196509093505050808211156200033357600080fd5b506200034285828601620001eb565b9150509250929050565b634e487b7160e01b600052603260045260246000fd5b6000600182016200038357634e487b7160e01b600052601160045260246000fd5b5060010190565b6106d8806200039a6000396000f3fe608060405234801561001057600080fd5b506004361061007d5760003560e01c80638da5cb5b1161005b5780638da5cb5b146100b2578063a638980c146100d2578063b1283e77146100e5578063f2fde38b1461011f57600080fd5b8063078e209714610082578063615fc1bb14610097578063715018a6146100aa575b600080fd5b6100956100903660046105a6565b610132565b005b6100956100a53660046105e2565b6101f0565b610095610289565b6000546040516001600160a01b0390911681526020015b60405180910390f35b6100956100e036600461060e565b6102ef565b6100f86100f3366004610638565b6103f1565b604080516001600160a01b03909416845291151560208401521515908201526060016100c9565b61009561012d366004610651565b610430565b6000546001600160a01b031633146101915760405162461bcd60e51b815260206004820181905260248201527f4f776e61626c653a2063616c6c6572206973206e6f7420746865206f776e657260448201526064015b60405180910390fd5b6000600184815481106101a6576101a6610673565b60009182526020909120018054921515600160a01b0274ffffffffffffffffffffffffffffffffffffffffff199093166001600160a01b0390941693909317919091179091555050565b6000546001600160a01b0316331461024a5760405162461bcd60e51b815260206004820181905260248201527f4f776e61626c653a2063616c6c6572206973206e6f7420746865206f776e65726044820152606401610188565b60006001838154811061025f5761025f610673565b60009182526020909120018054921515600160a81b0260ff60a81b19909316929092179091555050565b6000546001600160a01b031633146102e35760405162461bcd60e51b815260206004820181905260248201527f4f776e61626c653a2063616c6c6572206973206e6f7420746865206f776e65726044820152606401610188565b6102ed6000610512565b565b6000546001600160a01b031633146103495760405162461bcd60e51b815260206004820181905260248201527f4f776e61626c653a2063616c6c6572206973206e6f7420746865206f776e65726044820152606401610188565b604080516060810182526001600160a01b0393841681529115156020830190815260019183018281528254808401845560009390935292517fb10e2d527612073b26eecdfd717e6a320cf44b4afac2b0732d9fcbe2b7fa0cf69092018054915193511515600160a81b0260ff60a81b19941515600160a01b0274ffffffffffffffffffffffffffffffffffffffffff1990931693909516929092171791909116919091179055565b6001818154811061040157600080fd5b6000918252602090912001546001600160a01b038116915060ff600160a01b8204811691600160a81b90041683565b6000546001600160a01b0316331461048a5760405162461bcd60e51b815260206004820181905260248201527f4f776e61626c653a2063616c6c6572206973206e6f7420746865206f776e65726044820152606401610188565b6001600160a01b0381166105065760405162461bcd60e51b815260206004820152602660248201527f4f776e61626c653a206e6577206f776e657220697320746865207a65726f206160448201527f64647265737300000000000000000000000000000000000000000000000000006064820152608401610188565b61050f81610512565b50565b600080546001600160a01b038381167fffffffffffffffffffffffff0000000000000000000000000000000000000000831681178455604051919092169283917f8be0079c531659141344cd1fd0a4f28419497f9722a3daafe3b4186f6b6457e09190a35050565b80356001600160a01b038116811461059157600080fd5b919050565b8035801515811461059157600080fd5b6000806000606084860312156105bb57600080fd5b833592506105cb6020850161057a565b91506105d960408501610596565b90509250925092565b600080604083850312156105f557600080fd5b8235915061060560208401610596565b90509250929050565b6000806040838503121561062157600080fd5b61062a8361057a565b915061060560208401610596565b60006020828403121561064a57600080fd5b5035919050565b60006020828403121561066357600080fd5b61066c8261057a565b9392505050565b7f4e487b7100000000000000000000000000000000000000000000000000000000600052603260045260246000fdfea26469706673582212204603ca6c2f1adbd5aa8a0cbbac8539d52e5ded0fe3298dae4d58f54fe309671b64736f6c63430008110033",
  "linkReferences": {},
  "deployedLinkReferences": {}
}