{
  "_format": "hh-sol-artifact-1",
  "contractName": "BlurSwap",
  "sourceName": "contracts/swap/BlurSwap.sol",
  "abi": [
    {
      "inputs": [
        {
          "internalType": "address",
          "name": "_marketRegistry",
          "type": "address"
        },
        {
          "internalType": "address",
          "name": "_guardian",
          "type": "address"
        }
      ],
      "stateMutability": "nonpayable",
      "type": "constructor"
    },
    {
      "anonymous": false,
      "inputs": [
        {
          "indexed": true,
          "internalType": "address",
          "name": "previousOwner",
          "type": "address"
        },
        {
          "indexed": true,
          "internalType": "address",
          "name": "newOwner",
          "type": "address"
        }
      ],
      "name": "OwnershipTransferred",
      "type": "event"
    },
    {
      "inputs": [],
      "name": "GOV",
      "outputs": [
        {
          "internalType": "address",
          "name": "",
          "type": "address"
        }
      ],
      "stateMutability": "view",
      "type": "function"
    },
    {
      "inputs": [
        {
          "internalType": "address",
          "name": "_affiliate",
          "type": "address"
        }
      ],
      "name": "addAffiliate",
      "outputs": [],
      "stateMutability": "nonpayable",
      "type": "function"
    },
    {
      "inputs": [
        {
          "internalType": "uint256",
          "name": "_marketId",
          "type": "uint256"
        }
      ],
      "name": "addSponsoredMarket",
      "outputs": [],
      "stateMutability": "nonpayable",
      "type": "function"
    },
    {
      "inputs": [
        {
          "internalType": "uint256",
          "name": "",
          "type": "uint256"
        }
      ],
      "name": "affiliates",
      "outputs": [
        {
          "internalType": "address",
          "name": "affiliate",
          "type": "address"
        },
        {
          "internalType": "bool",
          "name": "isActive",
          "type": "bool"
        }
      ],
      "stateMutability": "view",
      "type": "function"
    },
    {
      "inputs": [],
      "name": "baseFees",
      "outputs": [
        {
          "internalType": "uint256",
          "name": "",
          "type": "uint256"
        }
      ],
      "stateMutability": "view",
      "type": "function"
    },
    {
      "inputs": [
        {
          "components": [
            {
              "internalType": "uint256",
              "name": "value",
              "type": "uint256"
            },
            {
              "internalType": "bytes",
              "name": "tradeData",
              "type": "bytes"
            }
          ],
          "internalType": "struct BlurSwap.OpenseaTrades[]",
          "name": "openseaTrades",
          "type": "tuple[]"
        }
      ],
      "name": "batchBuyFromOpenSea",
      "outputs": [],
      "stateMutability": "payable",
      "type": "function"
    },
    {
      "inputs": [
        {
          "components": [
            {
              "internalType": "address[]",
              "name": "tokenAddrs",
              "type": "address[]"
            },
            {
              "internalType": "uint256[]",
              "name": "amounts",
              "type": "uint256[]"
            }
          ],
          "internalType": "struct BlurSwap.ERC20Details",
          "name": "erc20Details",
          "type": "tuple"
        },
        {
          "components": [
            {
              "internalType": "uint256",
              "name": "marketId",
              "type": "uint256"
            },
            {
              "internalType": "uint256",
              "name": "value",
              "type": "uint256"
            },
            {
              "internalType": "bytes",
              "name": "tradeData",
              "type": "bytes"
            }
          ],
          "internalType": "struct MarketRegistry.TradeDetails[]",
          "name": "tradeDetails",
          "type": "tuple[]"
        },
        {
          "components": [
            {
              "internalType": "bytes",
              "name": "conversionData",
              "type": "bytes"
            }
          ],
          "internalType": "struct BlurSwap.ConverstionDetails[]",
          "name": "converstionDetails",
          "type": "tuple[]"
        },
        {
          "internalType": "address[]",
          "name": "dustTokens",
          "type": "address[]"
        }
      ],
      "name": "batchBuyWithERC20s",
      "outputs": [],
      "stateMutability": "payable",
      "type": "function"
    },
    {
      "inputs": [
        {
          "components": [
            {
              "internalType": "uint256",
              "name": "marketId",
              "type": "uint256"
            },
            {
              "internalType": "uint256",
              "name": "value",
              "type": "uint256"
            },
            {
              "internalType": "bytes",
              "name": "tradeData",
              "type": "bytes"
            }
          ],
          "internalType": "struct MarketRegistry.TradeDetails[]",
          "name": "tradeDetails",
          "type": "tuple[]"
        }
      ],
      "name": "batchBuyWithETH",
      "outputs": [],
      "stateMutability": "payable",
      "type": "function"
    },
    {
      "inputs": [],
      "name": "closeAllTrades",
      "outputs": [],
      "stateMutability": "nonpayable",
      "type": "function"
    },
    {
      "inputs": [],
      "name": "converter",
      "outputs": [
        {
          "internalType": "address",
          "name": "",
          "type": "address"
        }
      ],
      "stateMutability": "view",
      "type": "function"
    },
    {
      "inputs": [],
      "name": "guardian",
      "outputs": [
        {
          "internalType": "address",
          "name": "",
          "type": "address"
        }
      ],
      "stateMutability": "view",
      "type": "function"
    },
    {
      "inputs": [],
      "name": "marketRegistry",
      "outputs": [
        {
          "internalType": "contract MarketRegistry",
          "name": "",
          "type": "address"
        }
      ],
      "stateMutability": "view",
      "type": "function"
    },
    {
      "inputs": [
        {
          "components": [
            {
              "internalType": "address[]",
              "name": "tokenAddrs",
              "type": "address[]"
            },
            {
              "internalType": "uint256[]",
              "name": "amounts",
              "type": "uint256[]"
            }
          ],
          "internalType": "struct BlurSwap.ERC20Details",
          "name": "erc20Details",
          "type": "tuple"
        },
        {
          "components": [
            {
              "internalType": "address",
              "name": "tokenAddr",
              "type": "address"
            },
            {
              "internalType": "address[]",
              "name": "to",
              "type": "address[]"
            },
            {
              "internalType": "uint256[]",
              "name": "ids",
              "type": "uint256[]"
            }
          ],
          "internalType": "struct SpecialTransferHelper.ERC721Details[]",
          "name": "erc721Details",
          "type": "tuple[]"
        },
        {
          "components": [
            {
              "internalType": "address",
              "name": "tokenAddr",
              "type": "address"
            },
            {
              "internalType": "uint256[]",
              "name": "ids",
              "type": "uint256[]"
            },
            {
              "internalType": "uint256[]",
              "name": "amounts",
              "type": "uint256[]"
            }
          ],
          "internalType": "struct BlurSwap.ERC1155Details[]",
          "name": "erc1155Details",
          "type": "tuple[]"
        },
        {
          "components": [
            {
              "internalType": "bytes",
              "name": "conversionData",
              "type": "bytes"
            }
          ],
          "internalType": "struct BlurSwap.ConverstionDetails[]",
          "name": "converstionDetails",
          "type": "tuple[]"
        },
        {
          "components": [
            {
              "internalType": "uint256",
              "name": "marketId",
              "type": "uint256"
            },
            {
              "internalType": "uint256",
              "name": "value",
              "type": "uint256"
            },
            {
              "internalType": "bytes",
              "name": "tradeData",
              "type": "bytes"
            }
          ],
          "internalType": "struct MarketRegistry.TradeDetails[]",
          "name": "tradeDetails",
          "type": "tuple[]"
        },
        {
          "internalType": "address[]",
          "name": "dustTokens",
          "type": "address[]"
        },
        {
          "internalType": "uint256[2]",
          "name": "feeDetails",
          "type": "uint256[2]"
        }
      ],
      "name": "multiAssetSwap",
      "outputs": [],
      "stateMutability": "payable",
      "type": "function"
    },
    {
      "inputs": [
        {
          "internalType": "address",
          "name": "",
          "type": "address"
        },
        {
          "internalType": "address",
          "name": "",
          "type": "address"
        },
        {
          "internalType": "uint256[]",
          "name": "",
          "type": "uint256[]"
        },
        {
          "internalType": "uint256[]",
          "name": "",
          "type": "uint256[]"
        },
        {
          "internalType": "bytes",
          "name": "",
          "type": "bytes"
        }
      ],
      "name": "onERC1155BatchReceived",
      "outputs": [
        {
          "internalType": "bytes4",
          "name": "",
          "type": "bytes4"
        }
      ],
      "stateMutability": "nonpayable",
      "type": "function"
    },
    {
      "inputs": [
        {
          "internalType": "address",
          "name": "",
          "type": "address"
        },
        {
          "internalType": "address",
          "name": "",
          "type": "address"
        },
        {
          "internalType": "uint256",
          "name": "",
          "type": "uint256"
        },
        {
          "internalType": "uint256",
          "name": "",
          "type": "uint256"
        },
        {
          "internalType": "bytes",
          "name": "",
          "type": "bytes"
        }
      ],
      "name": "onERC1155Received",
      "outputs": [
        {
          "internalType": "bytes4",
          "name": "",
          "type": "bytes4"
        }
      ],
      "stateMutability": "nonpayable",
      "type": "function"
    },
    {
      "inputs": [
        {
          "internalType": "address",
          "name": "",
          "type": "address"
        },
        {
          "internalType": "address",
          "name": "",
          "type": "address"
        },
        {
          "internalType": "uint256",
          "name": "",
          "type": "uint256"
        },
        {
          "internalType": "bytes",
          "name": "",
          "type": "bytes"
        }
      ],
      "name": "onERC721Received",
      "outputs": [
        {
          "internalType": "bytes4",
          "name": "",
          "type": "bytes4"
        }
      ],
      "stateMutability": "nonpayable",
      "type": "function"
    },
    {
      "inputs": [
        {
          "internalType": "address",
          "name": "",
          "type": "address"
        },
        {
          "internalType": "uint256",
          "name": "",
          "type": "uint256"
        },
        {
          "internalType": "bytes",
          "name": "",
          "type": "bytes"
        }
      ],
      "name": "onERC721Received",
      "outputs": [
        {
          "internalType": "bytes4",
          "name": "",
          "type": "bytes4"
        }
      ],
      "stateMutability": "nonpayable",
      "type": "function"
    },
    {
      "inputs": [],
      "name": "openForFreeTrades",
      "outputs": [
        {
          "internalType": "bool",
          "name": "",
          "type": "bool"
        }
      ],
      "stateMutability": "view",
      "type": "function"
    },
    {
      "inputs": [],
      "name": "openForTrades",
      "outputs": [
        {
          "internalType": "bool",
          "name": "",
          "type": "bool"
        }
      ],
      "stateMutability": "view",
      "type": "function"
    },
    {
      "inputs": [],
      "name": "owner",
      "outputs": [
        {
          "internalType": "address",
          "name": "",
          "type": "address"
        }
      ],
      "stateMutability": "view",
      "type": "function"
    },
    {
      "inputs": [],
      "name": "punkProxy",
      "outputs": [
        {
          "internalType": "address",
          "name": "",
          "type": "address"
        }
      ],
      "stateMutability": "view",
      "type": "function"
    },
    {
      "inputs": [],
      "name": "renounceOwnership",
      "outputs": [],
      "stateMutability": "nonpayable",
      "type": "function"
    },
    {
      "inputs": [
        {
          "internalType": "address",
          "name": "asset",
          "type": "address"
        },
        {
          "internalType": "uint256[]",
          "name": "ids",
          "type": "uint256[]"
        },
        {
          "internalType": "uint256[]",
          "name": "amounts",
          "type": "uint256[]"
        },
        {
          "internalType": "address",
          "name": "recipient",
          "type": "address"
        }
      ],
      "name": "rescueERC1155",
      "outputs": [],
      "stateMutability": "nonpayable",
      "type": "function"
    },
    {
      "inputs": [
        {
          "internalType": "address",
          "name": "asset",
          "type": "address"
        },
        {
          "internalType": "address",
          "name": "recipient",
          "type": "address"
        }
      ],
      "name": "rescueERC20",
      "outputs": [],
      "stateMutability": "nonpayable",
      "type": "function"
    },
    {
      "inputs": [
        {
          "internalType": "address",
          "name": "asset",
          "type": "address"
        },
        {
          "internalType": "uint256[]",
          "name": "ids",
          "type": "uint256[]"
        },
        {
          "internalType": "address",
          "name": "recipient",
          "type": "address"
        }
      ],
      "name": "rescueERC721",
      "outputs": [],
      "stateMutability": "nonpayable",
      "type": "function"
    },
    {
      "inputs": [
        {
          "internalType": "address",
          "name": "recipient",
          "type": "address"
        }
      ],
      "name": "rescueETH",
      "outputs": [],
      "stateMutability": "nonpayable",
      "type": "function"
    },
    {
      "inputs": [
        {
          "internalType": "uint256",
          "name": "_baseFees",
          "type": "uint256"
        }
      ],
      "name": "setBaseFees",
      "outputs": [],
      "stateMutability": "nonpayable",
      "type": "function"
    },
    {
      "inputs": [
        {
          "internalType": "address",
          "name": "_converter",
          "type": "address"
        }
      ],
      "name": "setConverter",
      "outputs": [],
      "stateMutability": "nonpayable",
      "type": "function"
    },
    {
      "inputs": [
        {
          "internalType": "contract MarketRegistry",
          "name": "_marketRegistry",
          "type": "address"
        }
      ],
      "name": "setMarketRegistry",
      "outputs": [],
      "stateMutability": "nonpayable",
      "type": "function"
    },
    {
      "inputs": [
        {
          "internalType": "contract IERC20",
          "name": "token",
          "type": "address"
        },
        {
          "internalType": "address",
          "name": "operator",
          "type": "address"
        },
        {
          "internalType": "uint256",
          "name": "amount",
          "type": "uint256"
        }
      ],
      "name": "setOneTimeApproval",
      "outputs": [],
      "stateMutability": "nonpayable",
      "type": "function"
    },
    {
      "inputs": [
        {
          "internalType": "bool",
          "name": "_openForFreeTrades",
          "type": "bool"
        }
      ],
      "name": "setOpenForFreeTrades",
      "outputs": [],
      "stateMutability": "nonpayable",
      "type": "function"
    },
    {
      "inputs": [
        {
          "internalType": "bool",
          "name": "_openForTrades",
          "type": "bool"
        }
      ],
      "name": "setOpenForTrades",
      "outputs": [],
      "stateMutability": "nonpayable",
      "type": "function"
    },
    {
      "inputs": [],
      "name": "setUp",
      "outputs": [],
      "stateMutability": "nonpayable",
      "type": "function"
    },
    {
      "inputs": [
        {
          "internalType": "uint256",
          "name": "",
          "type": "uint256"
        }
      ],
      "name": "sponsoredMarkets",
      "outputs": [
        {
          "internalType": "uint256",
          "name": "marketId",
          "type": "uint256"
        },
        {
          "internalType": "bool",
          "name": "isActive",
          "type": "bool"
        }
      ],
      "stateMutability": "view",
      "type": "function"
    },
    {
      "inputs": [
        {
          "internalType": "bytes4",
          "name": "interfaceId",
          "type": "bytes4"
        }
      ],
      "name": "supportsInterface",
      "outputs": [
        {
          "internalType": "bool",
          "name": "",
          "type": "bool"
        }
      ],
      "stateMutability": "view",
      "type": "function"
    },
    {
      "inputs": [
        {
          "internalType": "address",
          "name": "newOwner",
          "type": "address"
        }
      ],
      "name": "transferOwnership",
      "outputs": [],
      "stateMutability": "nonpayable",
      "type": "function"
    },
    {
      "inputs": [
        {
          "internalType": "uint256",
          "name": "_affiliateIndex",
          "type": "uint256"
        },
        {
          "internalType": "address",
          "name": "_affiliate",
          "type": "address"
        },
        {
          "internalType": "bool",
          "name": "_IsActive",
          "type": "bool"
        }
      ],
      "name": "updateAffiliate",
      "outputs": [],
      "stateMutability": "nonpayable",
      "type": "function"
    },
    {
      "inputs": [
        {
          "internalType": "address",
          "name": "_guardian",
          "type": "address"
        }
      ],
      "name": "updateGuardian",
      "outputs": [],
      "stateMutability": "nonpayable",
      "type": "function"
    },
    {
      "inputs": [
        {
          "internalType": "uint256",
          "name": "_marketIndex",
          "type": "uint256"
        },
        {
          "internalType": "uint256",
          "name": "_marketId",
          "type": "uint256"
        },
        {
          "internalType": "bool",
          "name": "_isActive",
          "type": "bool"
        }
      ],
      "name": "updateSponsoredMarket",
      "outputs": [],
      "stateMutability": "nonpayable",
      "type": "function"
    },
    {
      "stateMutability": "payable",
      "type": "receive"
    }
  ],
  "bytecode": "0x6080604052600180553480156200001557600080fd5b5060405162003ba638038062003ba683398101604081905262000038916200010c565b62000043336200009f565b60068054600280546001600160a01b039485166001600160a01b0319909116179055600060055561ff001960ff199490931662010000029390931661ff01600160b01b0319909316929092176001171661010017905562000144565b600080546001600160a01b038381166001600160a01b0319831681178455604051919092169283917f8be0079c531659141344cd1fd0a4f28419497f9722a3daafe3b4186f6b6457e09190a35050565b80516001600160a01b03811681146200010757600080fd5b919050565b600080604083850312156200012057600080fd5b6200012b83620000ef565b91506200013b60208401620000ef565b90509250929050565b613a5280620001546000396000f3fe6080604052600436106102a45760003560e01c80638da5cb5b1161016e578063ccf3dc82116100cb578063ecb96fe61161007f578063f23a6e6111610064578063f23a6e61146107fb578063f2fde38b14610841578063fc5253951461086157600080fd5b8063ecb96fe614610791578063f0b9e5ba146107b757600080fd5b8063ddb382f9116100b0578063ddb382f914610718578063e4dd4b8a1461073c578063e6041f9a1461077157600080fd5b8063ccf3dc82146106d8578063d8579704146106f857600080fd5b8063b7ce33a211610122578063bc197c8111610107578063bc197c811461065b578063bd38837b146106a3578063c5cadd7f146106c357600080fd5b8063b7ce33a21461061b578063b92779631461063b57600080fd5b80639f2ba09b116101535780639f2ba09b146105c1578063a1b62797146105e1578063b19337a4146105fb57600080fd5b80638da5cb5b146105905780639a2b8115146105ae57600080fd5b806326e2dca21161021c5780635eacc63a116101d0578063715018a6116101b5578063715018a61461053b57806381ea4ea61461055057806383206e801461057057600080fd5b80635eacc63a146105085780636335f25e1461051b57600080fd5b8063452a932011610201578063452a9320146104a8578063565528d7146104c85780635d799f87146104e857600080fd5b806326e2dca2146104685780633a5750b61461048857600080fd5b806311f8541711610273578063180cb47f11610258578063180cb47f146103d6578063186b100c146104165780631bd787481461042957600080fd5b806311f8541714610359578063150b7a021461037857600080fd5b806301ffc9a7146102b057806304824e701461030f57806309ba153d146103315780630a9254e41461034457600080fd5b366102ab57005b600080fd5b3480156102bc57600080fd5b506102fa6102cb3660046129fe565b6001600160e01b0319167f01ffc9a7000000000000000000000000000000000000000000000000000000001490565b60405190151581526020015b60405180910390f35b34801561031b57600080fd5b5061032f61032a366004612a44565b610881565b005b61032f61033f366004612e6c565b6108db565b34801561035057600080fd5b5061032f610a54565b34801561036557600080fd5b506006546102fa90610100900460ff1681565b34801561038457600080fd5b506103bd610393366004612f62565b7f150b7a020000000000000000000000000000000000000000000000000000000095945050505050565b6040516001600160e01b03199091168152602001610306565b3480156103e257600080fd5b506103fe73cd0313fd7cca5648d2948c42c320ba50cd0e6cb681565b6040516001600160a01b039091168152602001610306565b61032f610424366004613229565b610c58565b34801561043557600080fd5b50610449610444366004613332565b610d2a565b604080516001600160a01b039093168352901515602083015201610306565b34801561047457600080fd5b5061032f610483366004613390565b610d5f565b34801561049457600080fd5b5061032f6104a3366004613332565b610e5e565b3480156104b457600080fd5b506002546103fe906001600160a01b031681565b3480156104d457600080fd5b5061032f6104e3366004613406565b610f2b565b3480156104f457600080fd5b5061032f610503366004613448565b610ff5565b61032f610516366004613481565b611140565b34801561052757600080fd5b506004546103fe906001600160a01b031681565b34801561054757600080fd5b5061032f611269565b34801561055c57600080fd5b5061032f61056b366004612a44565b6112bd565b34801561057c57600080fd5b5061032f61058b366004613570565b611387565b34801561059c57600080fd5b506000546001600160a01b03166103fe565b61032f6105bc36600461358d565b6113e2565b3480156105cd57600080fd5b5061032f6105dc3660046135ca565b611447565b3480156105ed57600080fd5b506006546102fa9060ff1681565b34801561060757600080fd5b5061032f610616366004612a44565b61151b565b34801561062757600080fd5b5061032f61063636600461360b565b611592565b34801561064757600080fd5b5061032f610656366004613332565b6116c2565b34801561066757600080fd5b506103bd6106763660046136a0565b7fbc197c810000000000000000000000000000000000000000000000000000000098975050505050505050565b3480156106af57600080fd5b506003546103fe906001600160a01b031681565b3480156106cf57600080fd5b5061032f61170f565b3480156106e457600080fd5b5061032f6106f336600461375f565b61173c565b34801561070457600080fd5b5061032f610713366004612a44565b6117e1565b34801561072457600080fd5b5061072e60055481565b604051908152602001610306565b34801561074857600080fd5b5061075c610757366004613332565b611869565b60408051928352901515602083015201610306565b34801561077d57600080fd5b5061032f61078c366004613570565b61189a565b34801561079d57600080fd5b506006546103fe906201000090046001600160a01b031681565b3480156107c357600080fd5b506103bd6107d236600461378d565b7ff0b9e5ba00000000000000000000000000000000000000000000000000000000949350505050565b34801561080757600080fd5b506103bd6108163660046137e9565b7ff23a6e61000000000000000000000000000000000000000000000000000000009695505050505050565b34801561084d57600080fd5b5061032f61085c366004612a44565b6118fc565b34801561086d57600080fd5b5061032f61087c366004612a44565b6119c9565b6000546001600160a01b031633146108ce5760405162461bcd60e51b815260206004820181905260248201526000805160206139fd83398151915260448201526064015b60405180910390fd5b6108d88147611a40565b50565b60015460011461091a5760405162461bcd60e51b815260206004820152600a6024820152695245454e5452414e435960b01b60448201526064016108c5565b600260015560005b845151811015610a2e57845180518290811061094057610940613865565b60200260200101516001600160a01b03166323b872dd33308860200151858151811061096e5761096e613865565b60209081029190910101516040516001600160a01b03938416602482015292909116604483015260648201526084016040516020818303038152906040529060e01b6020820180516001600160e01b0383818316178352505050506040516109d6919061387b565b6000604051808303816000865af19150503d8060008114610a13576040519150601f19603f3d011682016040523d82523d6000602084013e610a18565b606091505b5050508080610a26906138aa565b915050610922565b50610a3882611ac6565b610a4183611b73565b610a4a81611e9e565b5050600180555050565b6000546001600160a01b03163314610a9c5760405162461bcd60e51b815260206004820181905260248201526000805160206139fd83398151915260448201526064016108c5565b73b7f7f6c52f2e2fdb1963eab30438024864c313f66001600160a01b031663ddd81f826040518163ffffffff1660e01b8152600401600060405180830381600087803b158015610aeb57600080fd5b505af1158015610aff573d6000803e3d6000fd5b50506040517fa9c7b2c800000000000000000000000000000000000000000000000000000000815230600482015273b7f7f6c52f2e2fdb1963eab30438024864c313f6925063a9c7b2c89150602401602060405180830381865afa158015610b6b573d6000803e3d6000fd5b505050506040513d601f19601f82011682018060405250810190610b8f91906138d1565b6004805473ffffffffffffffffffffffffffffffffffffffff19166001600160a01b03929092169190911781556040517fa22cb46500000000000000000000000000000000000000000000000000000000815273c3f733ca98e0dad0386979eb96fb1722a1a05e699181019190915260016024820152737c40c393dc0f283f318791d746d894ddd36935729063a22cb46590604401600060405180830381600087803b158015610c3e57600080fd5b505af1158015610c52573d6000803e3d6000fd5b50505050565b60065460ff16610caa5760405162461bcd60e51b815260206004820152601260248201527f747261646573206e6f7420616c6c6f776564000000000000000000000000000060448201526064016108c5565b600154600114610ce95760405162461bcd60e51b815260206004820152600a6024820152695245454e5452414e435960b01b60448201526064016108c5565b6002600155610cf7816120a5565b610d0287878761218d565b610d0b84611ac6565b610d1483611b73565b610d1d82611e9e565b5050600180555050505050565b60078181548110610d3a57600080fd5b6000918252602090912001546001600160a01b0381169150600160a01b900460ff1682565b6000546001600160a01b03163314610da75760405162461bcd60e51b815260206004820181905260248201526000805160206139fd83398151915260448201526064016108c5565b60005b82811015610e5757846001600160a01b03166323b872dd3084878786818110610dd557610dd5613865565b6040516001600160e01b031960e088901b1681526001600160a01b03958616600482015294909316602485015250602090910201356044820152606401600060405180830381600087803b158015610e2c57600080fd5b505af1158015610e40573d6000803e3d6000fd5b505050508080610e4f906138aa565b915050610daa565b5050505050565b6000546001600160a01b03163314610ea65760405162461bcd60e51b815260206004820181905260248201526000805160206139fd83398151915260448201526064016108c5565b6040805180820190915290815260016020820181815260088054928301815560005291517ff3f7a9fe364faab93b216da50a3214154f22a0a2b415b23a84c8169e8b636ee360029092029182015590517ff3f7a9fe364faab93b216da50a3214154f22a0a2b415b23a84c8169e8b636ee4909101805460ff1916911515919091179055565b6000546001600160a01b03163314610f735760405162461bcd60e51b815260206004820181905260248201526000805160206139fd83398151915260448201526064016108c5565b6040518060400160405280836001600160a01b0316815260200182151581525060078481548110610fa657610fa6613865565b600091825260209182902083519101805493909201511515600160a01b0274ffffffffffffffffffffffffffffffffffffffffff199093166001600160a01b0390911617919091179055505050565b6000546001600160a01b0316331461103d5760405162461bcd60e51b815260206004820181905260248201526000805160206139fd83398151915260448201526064016108c5565b6040516370a0823160e01b81523060048201526001600160a01b0383169063a9059cbb90839083906370a0823190602401602060405180830381865afa15801561108b573d6000803e3d6000fd5b505050506040513d601f19601f820116820180604052508101906110af91906138ee565b6040516001600160a01b03909216602483015260448201526064016040516020818303038152906040529060e01b6020820180516001600160e01b038381831617835250505050604051611103919061387b565b6000604051808303816000865af19150503d8060008114610e57576040519150601f19603f3d011682016040523d82523d6000602084013e610e57565b60015460011461117f5760405162461bcd60e51b815260206004820152600a6024820152695245454e5452414e435960b01b60448201526064016108c5565b600260015560005b815181101561124f57737be8076f4ea4a4ad08075c2508e481d6c946d12b6001600160a01b03168282815181106111c0576111c0613865565b6020026020010151600001518383815181106111de576111de613865565b6020026020010151602001516040516111f7919061387b565b60006040518083038185875af1925050503d8060008114611234576040519150601f19603f3d011682016040523d82523d6000602084013e611239565b606091505b5050508080611247906138aa565b915050611187565b5047156112625760008060008047335af1505b5060018055565b6000546001600160a01b031633146112b15760405162461bcd60e51b815260206004820181905260248201526000805160206139fd83398151915260448201526064016108c5565b6112bb600061258c565b565b6000546001600160a01b031633146113055760405162461bcd60e51b815260206004820181905260248201526000805160206139fd83398151915260448201526064016108c5565b604080518082019091526001600160a01b03918216815260016020820181815260078054928301815560005291517fa66cc928b5edb82af9bd49922954155ab7b0942694bea4ce44661d9a8736c688909101805492511515600160a01b0274ffffffffffffffffffffffffffffffffffffffffff199093169190931617179055565b6000546001600160a01b031633146113cf5760405162461bcd60e51b815260206004820181905260248201526000805160206139fd83398151915260448201526064016108c5565b6006805460ff1916911515919091179055565b6001546001146114215760405162461bcd60e51b815260206004820152600a6024820152695245454e5452414e435960b01b60448201526064016108c5565b600260015561142f81611b73565b47156112625760008060008047335af1505060018055565b6000546001600160a01b0316331461148f5760405162461bcd60e51b815260206004820181905260248201526000805160206139fd83398151915260448201526064016108c5565b6040517f095ea7b30000000000000000000000000000000000000000000000000000000081526001600160a01b0383811660048301526024820183905284169063095ea7b3906044016020604051808303816000875af11580156114f7573d6000803e3d6000fd5b505050506040513d601f19601f82011682018060405250810190610c529190613907565b6000546001600160a01b031633146115635760405162461bcd60e51b815260206004820181905260248201526000805160206139fd83398151915260448201526064016108c5565b6003805473ffffffffffffffffffffffffffffffffffffffff19166001600160a01b0392909216919091179055565b6000546001600160a01b031633146115da5760405162461bcd60e51b815260206004820181905260248201526000805160206139fd83398151915260448201526064016108c5565b60005b848110156116b957866001600160a01b031663f242432a308489898681811061160857611608613865565b9050602002013588888781811061162157611621613865565b6040516001600160e01b031960e089901b1681526001600160a01b03968716600482015295909416602486015250604484019190915260209091020135606482015260a06084820152600060a482015260c401600060405180830381600087803b15801561168e57600080fd5b505af11580156116a2573d6000803e3d6000fd5b5050505080806116b1906138aa565b9150506115dd565b50505050505050565b6000546001600160a01b0316331461170a5760405162461bcd60e51b815260206004820181905260248201526000805160206139fd83398151915260448201526064016108c5565b600555565b6002546001600160a01b0316336001600160a01b03161461172f57600080fd5b6006805461ffff19169055565b6000546001600160a01b031633146117845760405162461bcd60e51b815260206004820181905260248201526000805160206139fd83398151915260448201526064016108c5565b6040518060400160405280838152602001821515815250600884815481106117ae576117ae613865565b60009182526020918290208351600292909202019081559101516001909101805460ff1916911515919091179055505050565b6000546001600160a01b031633146118295760405162461bcd60e51b815260206004820181905260248201526000805160206139fd83398151915260448201526064016108c5565b600680546001600160a01b0390921662010000027fffffffffffffffffffff0000000000000000000000000000000000000000ffff909216919091179055565b6008818154811061187957600080fd5b60009182526020909120600290910201805460019091015490915060ff1682565b6000546001600160a01b031633146118e25760405162461bcd60e51b815260206004820181905260248201526000805160206139fd83398151915260448201526064016108c5565b600680549115156101000261ff0019909216919091179055565b6000546001600160a01b031633146119445760405162461bcd60e51b815260206004820181905260248201526000805160206139fd83398151915260448201526064016108c5565b6001600160a01b0381166119c05760405162461bcd60e51b815260206004820152602660248201527f4f776e61626c653a206e6577206f776e657220697320746865207a65726f206160448201527f646472657373000000000000000000000000000000000000000000000000000060648201526084016108c5565b6108d88161258c565b6000546001600160a01b03163314611a115760405162461bcd60e51b815260206004820181905260248201526000805160206139fd83398151915260448201526064016108c5565b6002805473ffffffffffffffffffffffffffffffffffffffff19166001600160a01b0392909216919091179055565b600080600080600085875af1905080611ac15760405162461bcd60e51b815260206004820152602160248201527f5f7472616e736665724574683a20457468207472616e73666572206661696c6560448201527f640000000000000000000000000000000000000000000000000000000000000060648201526084016108c5565b505050565b60005b8151811015611b6f5760035482516000916001600160a01b031690849084908110611af657611af6613865565b602002602001015160000151604051611b0f919061387b565b600060405180830381855af49150503d8060008114611b4a576040519150601f19603f3d011682016040523d82523d6000602084013e611b4f565b606091505b50509050611b5c816125e9565b5080611b67816138aa565b915050611ac9565b5050565b60005b8151811015611b6f576000806000600660029054906101000a90046001600160a01b03166001600160a01b031663b1283e77868681518110611bba57611bba613865565b6020026020010151600001516040518263ffffffff1660e01b8152600401611be491815260200190565b606060405180830381865afa158015611c01573d6000803e3d6000fd5b505050506040513d601f19601f82011682018060405250810190611c259190613924565b92509250925080611c785760405162461bcd60e51b815260206004820152601760248201527f5f74726164653a20496e416374697665204d61726b657400000000000000000060448201526064016108c5565b737be8076f4ea4a4ad08075c2508e481d6c946d12b6001600160a01b0384161480611cbf5750737f268357a8c2552623316e2562d90e642bb538e56001600160a01b038416145b15611d6157826001600160a01b0316858581518110611ce057611ce0613865565b602002602001015160200151868681518110611cfe57611cfe613865565b602002602001015160400151604051611d17919061387b565b60006040518083038185875af1925050503d8060008114611d54576040519150601f19603f3d011682016040523d82523d6000602084013e611d59565b606091505b505050611e88565b600082611e0357836001600160a01b0316868681518110611d8457611d84613865565b602002602001015160200151878781518110611da257611da2613865565b602002602001015160400151604051611dbb919061387b565b60006040518083038185875af1925050503d8060008114611df8576040519150601f19603f3d011682016040523d82523d6000602084013e611dfd565b606091505b50611e7a565b836001600160a01b0316868681518110611e1f57611e1f613865565b602002602001015160400151604051611e38919061387b565b600060405180830381855af49150503d8060008114611e73576040519150601f19603f3d011682016040523d82523d6000602084013e611e78565b606091505b505b509050611e86816125e9565b505b5050508080611e96906138aa565b915050611b76565b4715611eb05760008060008047335af1505b60005b8151811015611b6f576000828281518110611ed057611ed0613865565b60209081029190910101516040516370a0823160e01b81523060048201526001600160a01b03909116906370a0823190602401602060405180830381865afa158015611f20573d6000803e3d6000fd5b505050506040513d601f19601f82011682018060405250810190611f4491906138ee565b111561209357818181518110611f5c57611f5c613865565b60200260200101516001600160a01b031663a9059cbb33848481518110611f8557611f85613865565b60209081029190910101516040516370a0823160e01b81523060048201526001600160a01b03909116906370a0823190602401602060405180830381865afa158015611fd5573d6000803e3d6000fd5b505050506040513d601f19601f82011682018060405250810190611ff991906138ee565b6040516001600160a01b03909216602483015260448201526064016040516020818303038152906040529060e01b6020820180516001600160e01b03838183161783525050505060405161204d919061387b565b6000604051808303816000865af19150503d806000811461208a576040519150601f19603f3d011682016040523d82523d6000602084013e61208f565b606091505b5050505b8061209d816138aa565b915050611eb3565b600554602082015110156120fb5760405162461bcd60e51b815260206004820152601060248201527f496e73756666696369656e74206665650000000000000000000000000000000060448201526064016108c5565b6020810151156108d85780516007805460009290811061211d5761211d613865565b6000918252602091829020604080518082019091529101546001600160a01b0381168252600160a01b900460ff161515918101829052915061217f57611b6f73cd0313fd7cca5648d2948c42c320ba50cd0e6cb68360015b6020020151611a40565b8051611b6f90836001612175565b60005b83515181101561229c5783518051829081106121ae576121ae613865565b60200260200101516001600160a01b03166323b872dd3330876020015185815181106121dc576121dc613865565b60209081029190910101516040516001600160a01b03938416602482015292909116604483015260648201526084016040516020818303038152906040529060e01b6020820180516001600160e01b038381831617835250505050604051612244919061387b565b6000604051808303816000865af19150503d8060008114612281576040519150601f19603f3d011682016040523d82523d6000602084013e612286565b606091505b5050508080612294906138aa565b915050612190565b5060005b82518110156124ab578281815181106122bb576122bb613865565b6020026020010151600001516001600160a01b031673b47e3cd837ddf8e4c57f05d70ab865de6e193bbb6001600160a01b03160361231a5761231583828151811061230857612308613865565b60200260200101516125f8565b612499565b82818151811061232c5761232c613865565b6020026020010151600001516001600160a01b03167360cd862c9c687a9de49aecdc3a99b74a4fc54ab66001600160a01b0316036123865761231583828151811061237957612379613865565b6020026020010151612797565b60005b83828151811061239b5761239b613865565b60200260200101516040015151811015612497578382815181106123c1576123c1613865565b6020026020010151600001516001600160a01b03166323b872dd6123e23390565b308786815181106123f5576123f5613865565b602002602001015160400151858151811061241257612412613865565b60209081029190910101516040516001600160e01b031960e086901b1681526001600160a01b0393841660048201529290911660248301526044820152606401600060405180830381600087803b15801561246c57600080fd5b505af1158015612480573d6000803e3d6000fd5b50505050808061248f906138aa565b915050612389565b505b806124a3816138aa565b9150506122a0565b5060005b8151811015610c52578181815181106124ca576124ca613865565b6020026020010151600001516001600160a01b0316632eb2c2d66124eb3390565b308585815181106124fe576124fe613865565b60200260200101516020015186868151811061251c5761251c613865565b6020026020010151604001516040518563ffffffff1660e01b815260040161254794939291906139a1565b600060405180830381600087803b15801561256157600080fd5b505af1158015612575573d6000803e3d6000fd5b505050508080612584906138aa565b9150506124af565b600080546001600160a01b0383811673ffffffffffffffffffffffffffffffffffffffff19831681178455604051919092169283917f8be0079c531659141344cd1fd0a4f28419497f9722a3daafe3b4186f6b6457e09190a35050565b806108d8573d6000803e3d6000fd5b60005b816040015151811015611b6f57600082600001516001600160a01b031663581781688460400151848151811061263357612633613865565b60200260200101516040518263ffffffff1660e01b815260040161265991815260200190565b602060405180830381865afa158015612676573d6000803e3d6000fd5b505050506040513d601f19601f8201168201806040525081019061269a91906138d1565b90506001600160a01b03811633146127025760405162461bcd60e51b815260206004820152602560248201527f5f61636365707443727970746f50756e6b3a20696e76616c69642070756e6b2060448201526437bbb732b960d91b60648201526084016108c5565b82600001516001600160a01b0316638264fe988460400151848151811061272b5761272b613865565b60200260200101516040518263ffffffff1660e01b815260040161275191815260200190565b600060405180830381600087803b15801561276b57600080fd5b505af115801561277f573d6000803e3d6000fd5b5050505050808061278f906138aa565b9150506125fb565b60005b816040015151811015611b6f5760006127cf836040015183815181106127c2576127c2613865565b602002602001015161298f565b83516040517f3894ca570000000000000000000000000000000000000000000000000000000081527fffffffffff000000000000000000000000000000000000000000000000000000831660048201529192506000916001600160a01b0390911690633894ca5790602401602060405180830381865afa158015612857573d6000803e3d6000fd5b505050506040513d601f19601f8201168201806040525081019061287b91906138d1565b90506001600160a01b03811633146128e35760405162461bcd60e51b815260206004820152602560248201527f5f6163636570744d6f6f6e4361743a20696e76616c6964206d6f6f6e6361742060448201526437bbb732b960d91b60648201526084016108c5565b83516040517f1be705100000000000000000000000000000000000000000000000000000000081527fffffffffff000000000000000000000000000000000000000000000000000000841660048201526001600160a01b0390911690631be7051090602401600060405180830381600087803b15801561296257600080fd5b505af1158015612976573d6000803e3d6000fd5b5050505050508080612987906138aa565b91505061279a565b6040805160208082528183019092526000918291906020820181803683375050506020810184815260405191925060059081830190600a8401905b818310156129e25780518352602092830192016129ca565b505060058352601f01601f191660405250602001519392505050565b600060208284031215612a1057600080fd5b81356001600160e01b031981168114612a2857600080fd5b9392505050565b6001600160a01b03811681146108d857600080fd5b600060208284031215612a5657600080fd5b8135612a2881612a2f565b634e487b7160e01b600052604160045260246000fd5b6040805190810167ffffffffffffffff81118282101715612a9a57612a9a612a61565b60405290565b6040516060810167ffffffffffffffff81118282101715612a9a57612a9a612a61565b6040516020810167ffffffffffffffff81118282101715612a9a57612a9a612a61565b604051601f8201601f1916810167ffffffffffffffff81118282101715612b0f57612b0f612a61565b604052919050565b600067ffffffffffffffff821115612b3157612b31612a61565b5060051b60200190565b600082601f830112612b4c57600080fd5b81356020612b61612b5c83612b17565b612ae6565b82815260059290921b84018101918181019086841115612b8057600080fd5b8286015b84811015612ba4578035612b9781612a2f565b8352918301918301612b84565b509695505050505050565b600082601f830112612bc057600080fd5b81356020612bd0612b5c83612b17565b82815260059290921b84018101918181019086841115612bef57600080fd5b8286015b84811015612ba45780358352918301918301612bf3565b600060408284031215612c1c57600080fd5b612c24612a77565b9050813567ffffffffffffffff80821115612c3e57600080fd5b612c4a85838601612b3b565b83526020840135915080821115612c6057600080fd5b50612c6d84828501612baf565b60208301525092915050565b600082601f830112612c8a57600080fd5b813567ffffffffffffffff811115612ca457612ca4612a61565b612cb7601f8201601f1916602001612ae6565b818152846020838601011115612ccc57600080fd5b816020850160208301376000918101602001919091529392505050565b600082601f830112612cfa57600080fd5b81356020612d0a612b5c83612b17565b82815260059290921b84018101918181019086841115612d2957600080fd5b8286015b84811015612ba457803567ffffffffffffffff80821115612d4e5760008081fd5b908801906060828b03601f1901811315612d685760008081fd5b612d70612aa0565b838801358152604080850135828a0152918401359183831115612d935760008081fd5b612da18d8a85880101612c79565b908201528652505050918301918301612d2d565b600082601f830112612dc657600080fd5b81356020612dd6612b5c83612b17565b82815260059290921b84018101918181019086841115612df557600080fd5b8286015b84811015612ba457803567ffffffffffffffff80821115612e1a5760008081fd5b90880190818a03601f1901861315612e325760008081fd5b612e3a612ac3565b8683013582811115612e4c5760008081fd5b612e5a8c8983870101612c79565b82525085525050918301918301612df9565b60008060008060808587031215612e8257600080fd5b843567ffffffffffffffff80821115612e9a57600080fd5b612ea688838901612c0a565b95506020870135915080821115612ebc57600080fd5b612ec888838901612ce9565b94506040870135915080821115612ede57600080fd5b612eea88838901612db5565b93506060870135915080821115612f0057600080fd5b50612f0d87828801612b3b565b91505092959194509250565b60008083601f840112612f2b57600080fd5b50813567ffffffffffffffff811115612f4357600080fd5b602083019150836020828501011115612f5b57600080fd5b9250929050565b600080600080600060808688031215612f7a57600080fd5b8535612f8581612a2f565b94506020860135612f9581612a2f565b935060408601359250606086013567ffffffffffffffff811115612fb857600080fd5b612fc488828901612f19565b969995985093965092949392505050565b600082601f830112612fe657600080fd5b81356020612ff6612b5c83612b17565b82815260059290921b8401810191818101908684111561301557600080fd5b8286015b84811015612ba457803567ffffffffffffffff8082111561303a5760008081fd5b908801906060828b03601f19018113156130545760008081fd5b61305c612aa0565b8784013561306981612a2f565b81526040848101358481111561307f5760008081fd5b61308d8e8b83890101612b3b565b838b0152509184013591838311156130a55760008081fd5b6130b38d8a85880101612baf565b908201528652505050918301918301613019565b600082601f8301126130d857600080fd5b813560206130e8612b5c83612b17565b82815260059290921b8401810191818101908684111561310757600080fd5b8286015b84811015612ba457803567ffffffffffffffff8082111561312c5760008081fd5b908801906060828b03601f19018113156131465760008081fd5b61314e612aa0565b8784013561315b81612a2f565b8152604084810135848111156131715760008081fd5b61317f8e8b83890101612baf565b838b0152509184013591838311156131975760008081fd5b6131a58d8a85880101612baf565b90820152865250505091830191830161310b565b600082601f8301126131ca57600080fd5b6040516040810181811067ffffffffffffffff821117156131ed576131ed612a61565b806040525080604084018581111561320457600080fd5b845b8181101561321e578035835260209283019201613206565b509195945050505050565b6000806000806000806000610100888a03121561324557600080fd5b873567ffffffffffffffff8082111561325d57600080fd5b6132698b838c01612c0a565b985060208a013591508082111561327f57600080fd5b61328b8b838c01612fd5565b975060408a01359150808211156132a157600080fd5b6132ad8b838c016130c7565b965060608a01359150808211156132c357600080fd5b6132cf8b838c01612db5565b955060808a01359150808211156132e557600080fd5b6132f18b838c01612ce9565b945060a08a013591508082111561330757600080fd5b506133148a828b01612b3b565b9250506133248960c08a016131b9565b905092959891949750929550565b60006020828403121561334457600080fd5b5035919050565b60008083601f84011261335d57600080fd5b50813567ffffffffffffffff81111561337557600080fd5b6020830191508360208260051b8501011115612f5b57600080fd5b600080600080606085870312156133a657600080fd5b84356133b181612a2f565b9350602085013567ffffffffffffffff8111156133cd57600080fd5b6133d98782880161334b565b90945092505060408501356133ed81612a2f565b939692955090935050565b80151581146108d857600080fd5b60008060006060848603121561341b57600080fd5b83359250602084013561342d81612a2f565b9150604084013561343d816133f8565b809150509250925092565b6000806040838503121561345b57600080fd5b823561346681612a2f565b9150602083013561347681612a2f565b809150509250929050565b6000602080838503121561349457600080fd5b823567ffffffffffffffff808211156134ac57600080fd5b818501915085601f8301126134c057600080fd5b81356134ce612b5c82612b17565b81815260059190911b830184019084810190888311156134ed57600080fd5b8585015b83811015613563578035858111156135095760008081fd5b86016040818c03601f19018113156135215760008081fd5b613529612a77565b828a013581529082013590878211156135425760008081fd5b6135508d8b84860101612c79565b818b0152855250509186019186016134f1565b5098975050505050505050565b60006020828403121561358257600080fd5b8135612a28816133f8565b60006020828403121561359f57600080fd5b813567ffffffffffffffff8111156135b657600080fd5b6135c284828501612ce9565b949350505050565b6000806000606084860312156135df57600080fd5b83356135ea81612a2f565b925060208401356135fa81612a2f565b929592945050506040919091013590565b6000806000806000806080878903121561362457600080fd5b863561362f81612a2f565b9550602087013567ffffffffffffffff8082111561364c57600080fd5b6136588a838b0161334b565b9097509550604089013591508082111561367157600080fd5b5061367e89828a0161334b565b909450925050606087013561369281612a2f565b809150509295509295509295565b60008060008060008060008060a0898b0312156136bc57600080fd5b88356136c781612a2f565b975060208901356136d781612a2f565b9650604089013567ffffffffffffffff808211156136f457600080fd5b6137008c838d0161334b565b909850965060608b013591508082111561371957600080fd5b6137258c838d0161334b565b909650945060808b013591508082111561373e57600080fd5b5061374b8b828c01612f19565b999c989b5096995094979396929594505050565b60008060006060848603121561377457600080fd5b8335925060208401359150604084013561343d816133f8565b600080600080606085870312156137a357600080fd5b84356137ae81612a2f565b935060208501359250604085013567ffffffffffffffff8111156137d157600080fd5b6137dd87828801612f19565b95989497509550505050565b60008060008060008060a0878903121561380257600080fd5b863561380d81612a2f565b9550602087013561381d81612a2f565b94506040870135935060608701359250608087013567ffffffffffffffff81111561384757600080fd5b61385389828a01612f19565b979a9699509497509295939492505050565b634e487b7160e01b600052603260045260246000fd5b6000825160005b8181101561389c5760208186018101518583015201613882565b506000920191825250919050565b6000600182016138ca57634e487b7160e01b600052601160045260246000fd5b5060010190565b6000602082840312156138e357600080fd5b8151612a2881612a2f565b60006020828403121561390057600080fd5b5051919050565b60006020828403121561391957600080fd5b8151612a28816133f8565b60008060006060848603121561393957600080fd5b835161394481612a2f565b6020850151909350613955816133f8565b604085015190925061343d816133f8565b600081518084526020808501945080840160005b838110156139965781518752958201959082019060010161397a565b509495945050505050565b60006001600160a01b03808716835280861660208401525060a060408301526139cd60a0830185613966565b82810360608401526139df8185613966565b83810360809094019390935250506000815260200194935050505056fe4f776e61626c653a2063616c6c6572206973206e6f7420746865206f776e6572a264697066735822122050fd474f5de1f0d43729acba37ddcdc75d27a5a8ab382a3233bb3f80786f4f4c64736f6c63430008110033",
  "linkReferences": {},
  "deployedLinkReferences": {}
}