{
  "_format": "hh-sol-artifact-1",
  "contractName": "PolicyManager",
  "sourceName": "contracts/PolicyManager.sol",
  "abi": [
    {
      "anonymous": false,
      "inputs": [
        {
          "indexed": true,
          "internalType": "address",
          "name": "previousOwner",
          "type": "address"
        },
        {
          "indexed": true,
          "internalType": "address",
          "name": "newOwner",
          "type": "address"
        }
      ],
      "name": "OwnershipTransferred",
      "type": "event"
    },
    {
      "anonymous": false,
      "inputs": [
        {
          "indexed": true,
          "internalType": "address",
          "name": "policy",
          "type": "address"
        }
      ],
      "name": "PolicyRemoved",
      "type": "event"
    },
    {
      "anonymous": false,
      "inputs": [
        {
          "indexed": true,
          "internalType": "address",
          "name": "policy",
          "type": "address"
        }
      ],
      "name": "PolicyWhitelisted",
      "type": "event"
    },
    {
      "inputs": [
        {
          "internalType": "address",
          "name": "policy",
          "type": "address"
        }
      ],
      "name": "addPolicy",
      "outputs": [],
      "stateMutability": "nonpayable",
      "type": "function"
    },
    {
      "inputs": [
        {
          "internalType": "address",
          "name": "policy",
          "type": "address"
        }
      ],
      "name": "isPolicyWhitelisted",
      "outputs": [
        {
          "internalType": "bool",
          "name": "",
          "type": "bool"
        }
      ],
      "stateMutability": "view",
      "type": "function"
    },
    {
      "inputs": [],
      "name": "owner",
      "outputs": [
        {
          "internalType": "address",
          "name": "",
          "type": "address"
        }
      ],
      "stateMutability": "view",
      "type": "function"
    },
    {
      "inputs": [
        {
          "internalType": "address",
          "name": "policy",
          "type": "address"
        }
      ],
      "name": "removePolicy",
      "outputs": [],
      "stateMutability": "nonpayable",
      "type": "function"
    },
    {
      "inputs": [],
      "name": "renounceOwnership",
      "outputs": [],
      "stateMutability": "nonpayable",
      "type": "function"
    },
    {
      "inputs": [
        {
          "internalType": "address",
          "name": "newOwner",
          "type": "address"
        }
      ],
      "name": "transferOwnership",
      "outputs": [],
      "stateMutability": "nonpayable",
      "type": "function"
    },
    {
      "inputs": [],
      "name": "viewCountWhitelistedPolicies",
      "outputs": [
        {
          "internalType": "uint256",
          "name": "",
          "type": "uint256"
        }
      ],
      "stateMutability": "view",
      "type": "function"
    },
    {
      "inputs": [
        {
          "internalType": "uint256",
          "name": "cursor",
          "type": "uint256"
        },
        {
          "internalType": "uint256",
          "name": "size",
          "type": "uint256"
        }
      ],
      "name": "viewWhitelistedPolicies",
      "outputs": [
        {
          "internalType": "address[]",
          "name": "",
          "type": "address[]"
        },
        {
          "internalType": "uint256",
          "name": "",
          "type": "uint256"
        }
      ],
      "stateMutability": "view",
      "type": "function"
    }
  ],
  "bytecode": "0x608060405234801561001057600080fd5b5061001a3361001f565b61006f565b600080546001600160a01b038381166001600160a01b0319831681178455604051919092169283917f8be0079c531659141344cd1fd0a4f28419497f9722a3daafe3b4186f6b6457e09190a35050565b6109438061007e6000396000f3fe608060405234801561001057600080fd5b50600436106100885760003560e01c80638da5cb5b1161005b5780638da5cb5b146100f7578063b84ef08114610112578063d6f0d88e14610125578063f2fde38b1461013b57600080fd5b8063715018a61461008d578063747f54ae1461009757806378d38d82146100c1578063874516cd146100d4575b600080fd5b61009561014e565b005b6100aa6100a53660046107da565b6101b9565b6040516100b89291906107fc565b60405180910390f35b6100956100cf36600461084d565b6102ae565b6100e76100e236600461084d565b6103a2565b60405190151581526020016100b8565b6000546040516001600160a01b0390911681526020016100b8565b61009561012036600461084d565b6103b5565b61012d6104aa565b6040519081526020016100b8565b61009561014936600461084d565b6104bb565b6000546001600160a01b031633146101ad5760405162461bcd60e51b815260206004820181905260248201527f4f776e61626c653a2063616c6c6572206973206e6f7420746865206f776e657260448201526064015b60405180910390fd5b6101b7600061059d565b565b6060600082846101c96001610605565b6101d3919061088c565b8111156101f257846101e56001610605565b6101ef919061088c565b90505b60008167ffffffffffffffff81111561020d5761020d61089f565b604051908082528060200260200182016040528015610236578160200160208202803683370190505b50905060005b828110156102955761025961025182896108b5565b60019061060f565b82828151811061026b5761026b6108c8565b6001600160a01b03909216602092830291909101909101528061028d816108de565b91505061023c565b50806102a183886108b5565b9350935050509250929050565b6000546001600160a01b031633146103085760405162461bcd60e51b815260206004820181905260248201527f4f776e61626c653a2063616c6c6572206973206e6f7420746865206f776e657260448201526064016101a4565b610313600182610622565b61035f5760405162461bcd60e51b815260206004820152600f60248201527f4e6f742077686974656c6973746564000000000000000000000000000000000060448201526064016101a4565b61036a600182610644565b506040516001600160a01b038216907f7d69543e56287cc6159e1cd00d200f2d86996b94ef9a170c4ec9a31daa6dd2ce90600090a250565b60006103af600183610622565b92915050565b6000546001600160a01b0316331461040f5760405162461bcd60e51b815260206004820181905260248201527f4f776e61626c653a2063616c6c6572206973206e6f7420746865206f776e657260448201526064016101a4565b61041a600182610622565b156104675760405162461bcd60e51b815260206004820152601360248201527f416c72656164792077686974656c69737465640000000000000000000000000060448201526064016101a4565b610472600182610659565b506040516001600160a01b038216907f5b5592d50e950152eab424f0fde17ba8b36801c96694a656ca54c6ffd149980890600090a250565b60006104b66001610605565b905090565b6000546001600160a01b031633146105155760405162461bcd60e51b815260206004820181905260248201527f4f776e61626c653a2063616c6c6572206973206e6f7420746865206f776e657260448201526064016101a4565b6001600160a01b0381166105915760405162461bcd60e51b815260206004820152602660248201527f4f776e61626c653a206e6577206f776e657220697320746865207a65726f206160448201527f646472657373000000000000000000000000000000000000000000000000000060648201526084016101a4565b61059a8161059d565b50565b600080546001600160a01b038381167fffffffffffffffffffffffff0000000000000000000000000000000000000000831681178455604051919092169283917f8be0079c531659141344cd1fd0a4f28419497f9722a3daafe3b4186f6b6457e09190a35050565b60006103af825490565b600061061b838361066e565b9392505050565b6001600160a01b0381166000908152600183016020526040812054151561061b565b600061061b836001600160a01b038416610698565b600061061b836001600160a01b03841661078b565b6000826000018281548110610685576106856108c8565b9060005260206000200154905092915050565b600081815260018301602052604081205480156107815760006106bc60018361088c565b85549091506000906106d09060019061088c565b90508181146107355760008660000182815481106106f0576106f06108c8565b9060005260206000200154905080876000018481548110610713576107136108c8565b6000918252602080832090910192909255918252600188019052604090208390555b8554869080610746576107466108f7565b6001900381819060005260206000200160009055905585600101600086815260200190815260200160002060009055600193505050506103af565b60009150506103af565b60008181526001830160205260408120546107d2575081546001818101845560008481526020808220909301849055845484825282860190935260409020919091556103af565b5060006103af565b600080604083850312156107ed57600080fd5b50508035926020909101359150565b604080825283519082018190526000906020906060840190828701845b8281101561083e5781516001600160a01b031684529284019290840190600101610819565b50505092019290925292915050565b60006020828403121561085f57600080fd5b81356001600160a01b038116811461061b57600080fd5b634e487b7160e01b600052601160045260246000fd5b818103818111156103af576103af610876565b634e487b7160e01b600052604160045260246000fd5b808201808211156103af576103af610876565b634e487b7160e01b600052603260045260246000fd5b6000600182016108f0576108f0610876565b5060010190565b634e487b7160e01b600052603160045260246000fdfea2646970667358221220c2210d01e3cfb100922c4be461fef7bafab6c6eb9cad391d4ba19e050ab5566264736f6c63430008110033",
  "linkReferences": {},
  "deployedLinkReferences": {}
}